:4000000000800020110000007D1400007D14000080B500AF024A034B1B68136001F062FABC760040FA46004010B5054C237833B9044B13B10448AFF300800123237010BD98
:40004000C081FF1F0000000040870000084B10B51BB108490848AFF300800848036803B910BD074B002BFBD0BDE81040184700BF00000000C481FF1F40870000C880FF1F84
:400080000000000080B500AF02F0B4FC064B1B78002B03D1044B01221A7002E0034B044A1A6000BF80BD00BF0082FF1FFC81FF1F40420F0080B582B000AF244B00221A702B
:4000C00002F0E8F803465B427B607B689AB2204B1B689BB2D31A9AB21E4B1A801C4A7B6813601D4B1B681D4A128811461C4A32F811209B1A184A1360184B1B881A46154BB7
:400100001988174B23F81210124B1B881A46124B1B681344104A1360104B1B885A1C114B1340002B03DA013B63F00F0301339AB20A4B1A80084B1B681B090B4A136002F02C
:40014000FFFB00BF0837BD4680BD00BF0082FF1F0482FF1F0882FF1F0C82FF1F1082FF1FDC81FF1F0F000080FC81FF1F80B500AF054802F097FB054802F0EEFB02F036F89E
:4001800002F07AFC00BF80BDB50000008500000090B585B000AF244B1B68184603F0DEF81BA3D3E9002303F079FA03460C461A4623464FF000001D4903F070FA03460C465B
:4001C000C7E902344FF00002194BD7E9020103F065FA03460C46184621460FA3D3E9002303F032F903460C46184621460CA3D3E9002302F077FF03460C46C7E90034D7E9BB
:40020000000103F053FB034618461437BD4690BD00000000006AF8408A8EE4F21FD2F23FF853E3A59BC4C03FFC81FF1F0000F03F00003740B0B588B002AF0346B9607A608C
:40024000FB73786804F068FE03463B6100237B6105E07B6800221A707B6901337B617A693B699A42F5DBFB7B002B0FD0FB7B0D2B0CD8FD7BB86803F093F803460C46CDE9DE
:4002800000342A460449786804F0A4FD7B6818461837BD46B0BD00BF0C88000080B483B000AF174B1B78FB71FB7903F01E03002B0CD097F9073003F01E035AB2114B1B78A9
:4002C0005BB213435BB2DAB20E4B1A70FB7903F02003002B09D00C4B1B78BB71094B1B78002B02D1094ABB791370FB7903F02003002BD6D100BF0C37BD4680BC704700BF79
:40030000686400401282FF1F4B6500404C64004080B500AF01F07AF9024801F0F3F900BF80BD00BF9D02000080B586B000AFF860B9607A6000237B6109E0BB685A1CBA6056
:400340001B78184601F0C4F97B6901337B617A697B689A42F1DB7B6818461837BD4680BD90B593B000AF62B6FFF700FFFFF7D0FF00F076F900F05CFD00F02EFA00F0F0F80B
:400380003B4800F0D1FB00F0FFFD3A4804F0DAFC00F022F903460C46354AC2E9003400F051F903460C46324AC2E9023400F0FCF80346184602F0F4FF03460C462C4AC2E964
:4003C000043400F015F903460C46294AC2E9063400F01CF903460C46254AC2E9083400F035FD0346184602F0B9FF03460C46204AC2E90A3400F018F903460C461C4AC2E9D0
:400400000C341B4A4FF000034FF00004C2E90E34FFF7BEFE0346184602F0C2FF03460C46134AC2E91034124A4FF000034FF00004C2E912340E4A4FF000034FF00004C2E958
:4004400014340B4A4FF000034FF00004C2E91634074A4FF000034FF00004C2E91834044A4FF000034FF00004C2E91A3490E700BF708CFF1FE088000090B583B000AF00F0FD
:400480007DF80346184603F06FFB0346FB8001F0C5FB2D4B1B682D4A128811462C4A32F811209B1A284A1360284B1B881946284AFB8822F81130FA88234B1B681344224A85
:4004C0001360224B1B885A1C224B1340002B05DA013B6FEA83536FEA935301339AB21B4B1A80194B1B689B0A9AB21B4B1A801A4B1B88184602F042FF0FA3D3E9002302F01B
:40050000A3FF03460C46184621460DA3D3E9002302F0E8FD03460C461846214603F0C6F902460E4B1A6001F02FFC00BF0C37BD4690BD00BFAFF300802F6EA301BC0572BFA4
:40054000713D0AD7A3702A401C8AFF1F208AFF1F1C82FF1FFF0300801882FF1F1482FF1F80B500AF01F0A2F901F058FB024801F0BDFB00BF80BD00BF7904000080B582B0F3
:4005800000AF01F06DFA002001F07AFA01F098FA0346FB80FB88184603F08EFA034618460837BD4680BD00BF80B400AF024B1B681846BD4680BC70471482FF1F80B500AF88
:4005C00001F0D6FB00BF80BD80B500AF01F0C4FB01F024FB00BF80BD90B400AF034B18CB18462146BD4690BC704700BF288AFF1F90B400AF044B03F10804D4E9003418468E
:400600002146BD4690BC7047288AFF1F90B400AF044B03F11004D4E9003418462146BD4690BC7047288AFF1F90B400AF044B03F11804D4E9003418462146BD4690BC704799
:40064000288AFF1F90B400AF044B03F12004D4E9003418462146BD4690BC7047288AFF1F80B500AF094801F021FD094801F02EFE084802F0BDF801F00DFC01F0AFFC02F093
:4006800053F8054B00221A7000BF80BD09070000C5070000C5060000508AFF1F80B582B000AF0346FB71FB79184601F059FD012001F04EFC012001F063FE00BF0837BD46A4
:4006C00080BD00BF80B500AF0C4B1B781846FFF7E5FF0A4B1B785A1C094B83FB02135910D317C91A0B469B000B44D11ACAB2034B1A7002F0CBF800BF80BD00BF508AFF1F9B
:400700006766666600000000B0B582B000AF284B1B78013BFB71FB79FF2B01D10423FB71FA79244BA3FB021399080B469B000B44D31AFB7101F008FD01F08EFC0346C3F5ED
:4007400080333B60FD79386802F008FE16A3D3E9002302F0A3FF03460C46184621464FF00002154B02F070FE03460C46184621464FF000024FF0804302F090FF03460C46D1
:40078000184621464FF000020C4B02F05DFE03460C460B49EA000A44C2E9003401F078FC00BF0837BD46B0BD0000000080842E41508AFF1FCDCCCCCC00407540000059408C
:4007C000288AFF1F80B500AF01F0CEFD002001F0D7FD00BF80BD00BF80B500AF044801F079FE01F0D1FE01F011FE00BF80BD00BFC90A000084B090B5C5B000AF07F5907466
:4008000084E80F00D7F8900204F086FB0346C7F808310023C7F80C310BE0D7F80C31D7F89022134400221A70D7F80C310133C7F80C31D7F80C21D7F808319A42EDDBD7F8D9
:40084000903224221A7007F5907318CB1846214603F02CF801463B1D1A460520FFF7EAFC03461946D7F8900204F047FBD7F8900204F052FB0246D7F8903213442C221A703F
:4008800007F5947318CB1846214603F00FF801463B1D1A460620FFF7CDFC03461946D7F8900204F02AFBD7F8900204F035FB0246D7F8903213442C221A7007F5987318CB16
:4008C0001846214602F0F2FF01463B1D1A460720FFF7B0FC03461946D7F8900204F00DFBD7F8900204F018FB0246D7F8903213442C221A7007F59C7318CB1846214602F06E
:40090000D5FF01463B1D1A460820FFF793FC03461946D7F8900204F0F0FAD7F8900204F0FBFA0246D7F8903213442C221A7007F5A07318CB1846214602F0B8FF01463B1DFF
:400940001A460920FFF776FC03461946D7F8900204F0D3FAD7F8900204F0DEFA0246D7F8903213442C221A7007F5A47318CB1846214602F09BFF01463B1D1A460A20FFF721
:4009800059FC03461946D7F8900204F0B6FAD7F8900204F0C1FA0246D7F8903213442C221A7007F5A87318CB1846214602F07EFF01463B1D1A460B20FFF73CFC03461946EF
:4009C000D7F8900204F099FAD7F8900204F0A4FA0246D7F8903213442C221A7007F5AC7318CB1846214602F061FF01463B1D1A460C20FFF71FFC03461946D7F8900204F0C6
:400A00007CFAD7F8900204F087FA0246D7F8903213442C221A7007F5B07318CB1846214602F044FF01463B1D1A460D20FFF702FC03461946D7F8900204F05FFAD7F890325F
:400A40000133184600F026F8C7F80401D7F8900204F062FA0246D7F8903213442A221A703B1DD7F804210A49184604F0B3F93B1D1946D7F8900204F040FAD7F89032184689
:400A800007F58A77BD46BDE8904004B0704700BFB889000080B485B000AF78600023FB6007E07B685A1C7A601B781A46FB685340FB607B681B78002BF3D1FB681846143719
:400AC000BD4680BC704700BF90B5DBB05AAF01F04FFD0C4C0C4B5893684604F110034FF4B072194603F0F0F894E80F00FFF782FE054800F00DF8054B01221A7000BF043702
:400B0000BD4690BD708CFF1F548AFF1F0481FF1F80B582B000AF7860786801F093FD00BF0837BD4680BD00BFB0B483B000AF78607A684FF000034FF00004C2E900347A681A
:400B40004FF000034FF00004C2E902347A684FF000034FF00004C2E904347A684FF000034FF00004C2E906347A684FF000034FF00004C2E908347A684FF000034FF00004C4
:400B8000C2E90A347A684FF000034FF00004C2E90C347A684FF000034FF00004C2E90E347A684FF000034FF00004C2E910347A684FF000034FF00004C2E912347A684FF0D7
:400BC00000034FF00004C2E914347A684FF000034FF00004C2E916347A684FF000034FF00004C2E918347A684FF000034FF00004C2E91A347B687033074A1D4614460FCC33
:400C000028606960AA60EB6023782B7400BF0C37BD46B0BC704700BF808A000098B500AF02F0D4F8224B1B78012B10D1204B00221A700CE01F4B1B785A1CD1B21D4A11703B
:400C40001C4601F0FDFF03461A461B4B1A5501F0E5FF0346202BEDD0164B1B781A46164B00219954154B1B78002B15D0134B1B78012B0BD10F4B00221A700F4800F03AF843
:400C80000346002B02D00A4B01221A700B4B1B78013BDAB2094B1A70064B1B78013B064AD35C2A2B02D1054B02221A7000BF98BD568BFF1F578CFF1F588BFF1F588CFF1F81
:400CC00080B485B000AF78600023FB8107E07B685A1C7A601B789AB2FB895340FB817B681B78002BF3D1FB8918461437BD4680BC704700BF90B5CBB000AF3B1D1860464BC2
:400D0000C7F81C31FF2387F823313B1D186804F003F90346A7F81A31B7F81A31023B3A1D1268134407F586723C49184604F076F8B7F81A31033B3A1D1268134400221A7013
:400D40003B1D3A1D126801321A603B1D1868FFF7B7FF0346C7F81431D7F80C21D7F814319A420BD0D7F80C31D7F8142119462C4803F076FFFF2387F8233144E03B1DD7F87A
:400D80001C11186804F0FCFEC7F8240137E007F10B031A462349D7F8240104F03FF8D7F81C11002004F0ECFEC7F8240107F10C031A461D49D7F8240104F030F807F10C03EA
:400DC000184602F0F1FE03460C461846214602F04DFD0346A7F8123107F10B031B780A2B06D1124AB7F812311380012387F82331D7F81C11002004F0C3FEC7F82401D7F8EC
:400E00002431002BC3D197F823319BB2184607F59677BD4690BD00BF488D00004C8D0000508D00007C8D0000808D0000548BFF1F80B500AF01F084FE034801F079FF00F05F
:400E40000FF800BF80BD00BF1D0C000080B400AF024B1B881846BD4680BC7047548BFF1F80B500AF002001F0BDFF00BF80BD00BF80B500AF012001F0B5FF00BF80BD00BF92
:400E800080B500AF01F05CFE024801F051FF00BF80BD00BF1D0C000080B500AF01F08AFF01F0F0FE01F092FF01F092FE00BF80BD80B500AF02F034F802F0D6F82C4B1B788C
:400EC000032B51D801A252F823F000BF310F00004F0F0000170F0000DD0E0000254803F031FF4AF6C87002F04FF8FFF7D5FFFFF7B7FF214B1B78002B06D01D4B02221A7060
:400F00001D4B00221A702FE01B4B1B780133DAB2194B1A7028E0194803F014FF4EF6602002F032F8FFF750FB114B00221A701BE0134803F007FF4EF6602002F025F8FFF737
:400F40003DFBFFF795FF0A4B01221A700CE00D4803F0F8FE4EF6602002F016F8FFF790FF034B03221A7000BF01F0C8FF00BF80BD0581FF1F848D0000598CFF1F908D0000F5
:400F80009C8D0000A88D000080B500AF01F0B6FF024802F01BF800BF80BD00BFB10E000080B582B000AF786039603A680021786802F095FE00BF0837BD4680BD80B584B02A
:400FC00000AFF860B9607A607A68B968F86802F07BFE00BF1037BD4680BD00BF80B483B000AF0346FB71FEE780B487B000AF7860396000233B6100237B6127E07B699B00A5
:401000007A6813441B68BB60BB68FB73BB6823F0FF03BB6014E03B695B003A6813441B781A46BB68134419463B695B003A6813445B780B703B6901333B61FB7B013BFB7363
:40104000FB7B002BE7D17B6901337B617B692A2BD4D900BF1C37BD4680BC704780B582B000AF504B17221A804F4B18221A704F4B19221A804E4B18221A704E4BEF221A8043
:401080004D4B18221A704D4BEF221A804C4B18221A704C4B4FF49C721A804B4B18221A704A4B4FF49C721A80494B18221A70494B4BF67F321A80484B18221A700822474951
:4010C0004748FFF77BFF474B06221A70464B52221A70464B464A1278D2B21A70454B4FF4E1621A80444B41F251221A800023FB7019237B6014E0FB785B00DAB23F4B1B78D6
:40110000DBB203F00103DBB21343DBB203F00303FB704FF4F07001F0B3FF7B68013B7B607B68002B02D0FB78032BE4D17B68002B02D10320FFF752FF314B4FF480721A804B
:401140002F4B07221A702F4B00221A702E4B48221A702B4B00221A702C4B00221A702C4B02221A702B4B04221A702B4A2A4B1B78DBB243F07F03DBB21370284A274B1B78D9
:40118000DBB243F00203DBB21370254A244B1B78DBB263F07F03DBB2137000BF0837BD4680BD00BF80400040824000408440004086400040884000408A4000408C40004050
:4011C0008E40004090400040924000409440004096400040984000409A40004058110048004100400043004000420040A14600400F010049224200402042004025420040BF
:4012000004400040064000400840004009400040014000400B400040A2430040A1430040A043004080B582B000AF1F4B1B78FB711E4B1B78BB711E4B1B787B711D4AFB79B1
:4012400003F00703DBB213701B4AFB791B09DBB21370164ABB7943F00303DBB21370144A7B7943F00303DBB21370144B80221A70134B40221A70134B40221A70124B082236
:401280001A70124B20221A700A2000F0AFFA084A7B791370054ABB7913700D4B44221A7000BF0837BD4680BDCF010049F8460040F94600406E5800406F5800402D51004082
:4012C0000159004003590040205B0040235B00407658004080B582B000AF72B6484A484B1B78DBB243F00403DBB213700023FB7113E0FA7913465B0013445B00414A134427
:401300003B603B681A683B689B889BB219461046FFF746FEFB790133FB71FB79062BE8D939494FF09040FFF75FFE384B384A1A60384B394A1A60394B354A1A60384B364A0E
:401340001A60384B384A1A60384A384B1B78DBB243F00203DBB21370354A354B1B78DBB243F00203DBB21370324A324B1B78DBB243F04003DBB213702F4A2F4B1B78DBB2EE
:4013800043F01003DBB2137008222C492C48FFF715FE0A222B492C48FFF710FE08222B492B48FFF70BFE08222A492B48FFF706FE08222A492A48FFF701FE082229492A4877
:4013C000FFF7FCFD294A294B1B78DBB243F00803DBB21370264B61221A70FFF73FFE244B81221A70234B01221A70FFF71BFF0E2210492148FFF7E2FD00BF0837BD4680BD2C
:40140000E8460040B48D0000AC000048D8040140040404C4D808014004040444580A0140D80E014058160140040404840350014013500140A0430040C24300402411004885
:40144000025100402C110048C051004038110048F2510040401100481251004048110048225100405011004832510040224300400048004004000840B043004080B500AF63
:4014800002F096FB03461B680C2B00D1FEE7FEE780B584B000AF7860104B1A687B6813441A460F4BD31AB3F5407F09DC0B4B1B68FB600A4B1A687B681344084A136007E020
:4014C00002F076FB02460C2313604FF0FF33FB60FB6818461037BD4680BD00BF0881FF1FF08DFF1F80B586B000AF224B7B61224B3B61204B7B6135E03B691B68FB603B699C
:401500005B68BB603B699B683B6000237B600CE0FB681A68BB681A60BB680433BB60FB680433FB607B6804337B607A683B689A42EED13B69DB683B6000237B6008E0BB6815
:4015400000221A60BB680433BB607B6804337B607A683B689A42F2D13B6910333B617B69013B7B617B69002BC6D102F027FBFEF7F7FEFEE7010000003C91000080B582B004
:4015800000AF184B184A1A60184A184B1B6843F40073136000237B600FE07B68032B04D8134A7B6852F8233000E0124B12497A6841F822307B6801337B607B682F2BECD928
:4015C0000E4B1B78DAB20E4B1A700E4B0A4A1A60FFF780FE0C4B00221A6000BF0837BD4680BD00BF0CED00E00004FA0514ED00E0000000007D1400000080FF1FBC760040A7
:40160000C480FF1F08ED00E0C080FF1F80B500AF064B1B78002B04D100F00AF8034B01221A7000F025F800BF80BD00BF5A8CFF1F80B400AF094B72221A70094B3E221A7001
:40164000084B06221A70084B47221A70074B00221A7000BFBD4680BC704700BF88650040886400402D6400403D6400408C64004080B582B000AF01F00BFD0346FB71114A53
:40168000104B1B78DBB243F02003DBB213700E4A0D4B1B78DBB243F01003DBB213700B4A0A4B1B78DBB243F01003DBB2137000F077F8FB79184601F0EFFC00BF0837BD46F5
:4016C00080BD00BF98650040986400409C64004080B483B000AF0346FB7100BF074B1B78DBB203F00403002BF8D1054AFB79137000BF0C37BD4680BC704700BF6C6400403E
:401700004C64004080B582B000AF786000F03CF8786800F009F8072000F018F800F028F800BF0837BD4680BD80B485B000AF7860054B1B68FB60FB6860337A681A6000BF32
:401740001437BD4680BC704708ED00E080B483B000AF0346FB71054AFB795B01DBB2137000BF0C37BD4680BC704700BF08E400E080B400AF034B4FF480721A6000BFBD4634
:4017800080BC704700E100E080B400AF034B4FF480721A6000BFBD4680BC704780E100E080B400AF094A094B1B78DBB243F00203DBB21370064A064B1B78DBB243F00203B4
:4017C000DBB2137000BFBD4680BC7047A2430040B243004080B483B000AF0346FB7101BE00BF0C37BD4680BC704700BF80B582B000AF0346FB80FB88054A127802FB03F360
:40180000184601F03DFC00BF0837BD4680BD00BF1481FF1F80B584B000AF03463960FB710F4B1B68FB60FB791F2B02D90020FFF7D1FFFB7903F01F0310339B00FA68134433
:401840001B68BB60FB7903F01F0310339B00FA6813443A681A60BB6818461037BD4680BD08ED00E080B582B000AF03460A46FB711346BB71BB79072B02D90020FFF7AAFF11
:40188000FB791F2B02D90020FFF7A4FFFB7903F01F0303F1604303F56443BA795201D2B21A7000BF0837BD4680BD00BF80B500AF064B1B78002B04D100F00AF8034B01225B
:4018C0001A7000F029F800BF80BD00BF5C8CFF1F80B500AF102000F051F907210720FFF7C1FF0A490720FFF795FF094A084B1B78DBB243F00603DBB213700C2000F086F889
:40190000044B00221A8000BF80BD00BF711B000001590040E68DFF1F80B582B000AF01F0B7FB0346FB712E4A2D4B1B78DBB243F00103DBB213702B4A2A4B1B78DBB243F028
:401940000103DBB21370284A274B1B78DBB243F00203DBB21370254A244B1B78DBB243F00203DBB21370224B1B78BB71BB7943F00203BB71BB7943F00103BB711C4ABB79CC
:4019800013701C4B18221A701B4A1B4B1B78DBB243F04003DBB21370174A174B1B78DBB223F00303DBB21370144BC8221A70144B02221A70134A134B1B78DBB243F0080303
:4019C000DBB213700A20FFF711FF0F4B80221A60FB79184601F060FB00BF0837BD4680BDAB430040BB430040A1430040B1430040035900400659004005590040005900409F
:401A000014460040275B004080E200E080B584B000AF0346FB71FB790A2B07D00C2B02D0082B06D008E0C223FB730BE08223FB7308E04223FB7305E0C223FB730020FFF767
:401A4000C9FE00BF054AFB7B1370FB79184600F04FF800BF1037BD4680BD00BF0259004080B400AF054A054B1B78DBB243F00103DBB2137000BFBD4680BC704700590040B8
:401A800080B584B000AF0346FB710C4B1B78DBB203F00103FB73FB7B012B02D0FB79002BF3D0FB7B012B04D10120FFF79FFE034B1B78FB7B18461037BD4680BD01590040A6
:401AC00080B483B000AF084B1B88FB80074B1B881BB29BB2FA88D31A9BB21BB218460C37BD4680BC704700BFA05B0040E88DFF1F80B584B000AF0346FB71FB790A2B08D055
:401B00000C2B02D0082B08D00BE04FF48053FB600DE04FF48063FB6009E04FF48073FB6005E00023FB600020FFF754FE00BF0C4B00221A80FB6842F2107202FB03F303F6AB
:401B4000C413084A82FB0312D212DB17D31A064A1360064B00221A8000BF1037BD4680BDE48DFF1FAD8BDB68E08DFF1FE88DFF1F80B400AF00BFBD4680BC704780B483B0AA
:401B800000AF0346FB710949084B1B78DBB25AB297F9073023F007035BB213435BB2DBB20B7000BF0C37BD4680BC70470641004080B582B000AF45F6BF5000F05DF845F635
:401BC000BF5000F075F801F063FA0346FB710A4A094B1B78DBB243F01003DBB21370FB79184601F059FA00F073F8002000F028F800BF0837BD4680BD9F64004080B400AF53
:401C0000054A054B1B78DBB263F07F03DBB2137000BFBD4680BC70477E64004080B500AF064B1B78002B04D1FFF7C2FF034B01221A70FFF7E3FF00BF80BD00BF5D8CFF1F15
:401C400080B483B000AF0346FB71044AFB79137000BF0C37BD4680BC704700BF8F64004080B400AF034B1B78DBB21846BD4680BC704700BF6F64004080B483B000AF034694
:401C8000FB80044AFB88138000BF0C37BD4680BC704700BF5C68004080B400AF034B1B889BB21846BD4680BC704700BF9C68004080B483B000AF0346FB80044AFB881380D4
:401CC00000BF0C37BD4680BC704700BF1C68004080B500AF01E0FFF7DFFFFFF7C1FF034603F00803002BF6D100BF80BD80B582B000AF786000F03CF8786800F009F80120E1
:401D000000F018F800F028F800BF0837BD4680BD80B485B000AF7860054B1B68FB60FB6864337A681A6000BF1437BD4680BC704708ED00E080B483B000AF0346FB71054AF2
:401D4000FB795B01DBB2137000BF0C37BD4680BC704700BF09E400E080B400AF034B4FF400721A6000BFBD4680BC704700E100E080B400AF034B4FF400721A6000BFBD4607
:401D800080BC704780E100E080B400AF034B4FF400721A6000BFBD4680BC704780E200E080B500AF254A254B1B78DBB203F00103DBB21370224A224B1B78DBB223F003039C
:401DC000DBB213701D4A1D4B1B78DBB243F00403DBB213701B4A1B4B1B78DBB243F00103DBB21370184A184B1B78DBB223F03003DBB21370144A144B1B78DBB243F03003EA
:401E0000DBB21370104A104B1B78DBB223F00F03DBB213700C4A0C4B1B78DBB243F00F03DBB21370052000F083F8052000F054F8002000F041F800BF80BD00BF004F0040E2
:401E4000024F0040014F00400B4F004080B400AF0D4A0D4B1B78DBB243F00103DBB213700A4A0A4B1B78DBB243F00103DBB21370074A074B1B78DBB243F00103DBB2137094
:401E800000BFBD4680BC7047A3430040B3430040004F004080B500AF064B1B78002B04D1FFF77EFF034B01221A70FFF7CFFF00BF80BD00BF5E8CFF1F80B483B000AF034666
:401EC000FB71044AFB79137000BF0C37BD4680BC704700BF034F004080B582B000AF0346FB71114B1B78DBB203F00103002B02D00020FFF76FFC0C4A0B4B1B78DBB243F02D
:401F00000103DBB21370094BFA7992B21A80064A054B1B78DBB223F00103DBB2137000BF0837BD4680BD00BFA3430040064F004080B483B000AF0346FB71044BFA7992B278
:401F40001A8000BF0C37BD4680BC7047044F004080B483B000AF0346FB71044AFB79137000BF0C37BD4680BC704700BF7764004080B582B000AF4FF6FF7000F05DF84FF606
:401F8000FF7000F075F801F083F80346FB710A4A094B1B78DBB243F01003DBB21370FB79184601F079F800F073F8002000F028F800BF0837BD4680BD9564004080B400AFFD
:401FC000054A054B1B78DBB263F07F03DBB2137000BFBD4680BC70477164004080B500AF064B1B78002B04D1FFF7C2FF034B01221A70FFF7E3FF00BF80BD00BF5F8CFF1F5D
:4020000080B483B000AF0346FB71044AFB79137000BF0C37BD4680BC704700BF8564004080B400AF034B1B78DBB21846BD4680BC704700BF6564004080B483B000AF0346E4
:40204000FB80044AFB88138000BF0C37BD4680BC704700BF4868004080B400AF034B1B889BB21846BD4680BC704700BF8868004080B483B000AF0346FB80044AFB88138038
:4020800000BF0C37BD4680BC704700BF0868004080B500AF01E0FFF7DFFFFFF7C1FF034603F00803002BF6D100BF80BD80B582B000AF786000F03CF8786800F009F807202B
:4020C00000F018F800F028F800BF0837BD4680BD80B485B000AF7860054B1B68FB60FB684C337A681A6000BF1437BD4680BC704708ED00E080B483B000AF0346FB71054A47
:40210000FB795B01DBB2137000BF0C37BD4680BC704700BF03E400E080B400AF034B08221A6000BFBD4680BC704700BF00E100E080B400AF034B08221A6000BFBD4680BC64
:40214000704700BF80E100E080B400AF034B08221A6000BFBD4680BC704700BF80E200E080B483B000AF0346FB71044AFB79137000BF0C37BD4680BC704700BF746400403E
:4021800080B582B000AF4FF0FF3000F05DF84FF0FF3000F071F800F07BFF0346FB710A4A094B1B78DBB243F01003DBB21370FB79184600F071FF00F07BF8002000F028F88D
:4021C00000BF0837BD4680BD9064004080B400AF054A054B1B78DBB263F07F03DBB2137000BFBD4680BC70477064004080B500AF064B1B78002B04D1FFF7C2FF034B01222D
:402200001A70FFF7E3FF00BF80BD00BF608CFF1F80B483B000AF0346FB71044AFB79137000BF0C37BD4680BC704700BF8064004080B400AF034B1B78DBB21846BD4680BC9E
:40224000704700BF6064004080B483B000AF7860034A7B68136000BF0C37BD4680BC70472064004080B400AF024B1B681846BD4680BC70474064004080B483B000AF7860BE
:40228000034A7B68136000BF0C37BD4680BC70470064004080B400AF034B1B78034B1B681846BD4680BC7047006400404064004080B500AF01E0FFF7D5FFFFF7B9FF0346E8
:4022C00003F00803002BF6D100BF80BD80B582B000AF786000F03CF8786800F009F8072000F018F800F028F800BF0837BD4680BD80B485B000AF7860054B1B68FB60FB6819
:4023000054337A681A6000BF1437BD4680BC704708ED00E080B483B000AF0346FB71054AFB795B01DBB2137000BF0C37BD4680BC704700BF05E400E080B400AF034B2022F8
:402340001A6000BFBD4680BC704700BF00E100E080B400AF034B20221A6000BFBD4680BC704700BF80E100E080B400AF034B20221A6000BFBD4680BC704700BF80E200E069
:4023800080B483B000AF0346FB71044AFB79137000BF0C37BD4680BC704700BF7665004080B582B000AF44F61F6000F05DF844F61F6000F073F800F06BFE0346FB710A4AB1
:4023C000094B1B78DBB243F01003DBB21370FB79184600F061FE00F06FF8002000F028F800BF0837BD4680BD9964004080B400AF054A054B1B78DBB263F07F03DBB2137069
:4024000000BFBD4680BC70477765004080B500AF064B1B78002B04D1FFF7C2FF034B01221A70FFF7E3FF00BF80BD00BF618CFF1F80B483B000AF0346FB71044AFB791370A3
:4024400000BF0C37BD4680BC704700BF8964004080B400AF034B1B78DBB21846BD4680BC704700BF6964004080B582B000AF78607968034800F014FE00BF0837BD4680BDAD
:402480002764004080B400AF034B1B6823F07F431846BD4680BC70474764004080B582B000AF78607968034800F0FAFD00BF0837BD4680BD0764004080B500AF01E0FFF7E4
:4024C000E1FFFFF7C5FF034603F00803002BF6D100BF80BD80B582B000AF786000F03CF8786800F009F8022000F018F800F028F800BF0837BD4680BD80B485B000AF7860CA
:40250000054B1B68FB60FB6858337A681A6000BF1437BD4680BC704708ED00E080B483B000AF0346FB71054AFB795B01DBB2137000BF0C37BD4680BC704700BF06E400E0D3
:4025400080B400AF034B40221A6000BFBD4680BC704700BF00E100E080B400AF034B40221A6000BFBD4680BC704700BF80E100E080B400AF034B40221A6000BFBD4680BC4C
:40258000704700BF80E200E080B500AF064B1B78002B04D100F00AF8034B01221A7000F01BF800BF80BD00BF628CFF1F80B400AF064B06221A70064B47221A70054B002248
:4025C0001A7000BFBD4680BC704700BF2A6400403A6400408B64004080B582B000AF00F057FD0346FB71094A084B1B78DBB243F01003DBB2137000F047F8FB79184600F0E6
:402600004BFD00BF0837BD4680BD00BF9B64004080B483B000AF0346FB7100BF074B1B78DBB203F00403002BF8D1054AFB79137000BF0C37BD4680BC704700BF6B64004020
:402640004B64004080B584B000AF78600023FB810C4B1B78002B10D009E0FB897A6813441B781846FFF7D4FFFB890133FB81FB897A6813441B78002BEFD100BF1037BD460F
:4026800080BD00BF628CFF1F80B400AF094A094B1B78DBB243F01003DBB21370064A064B1B78DBB243F01003DBB2137000BFBD4680BC7047A2430040B243004080B582B085
:4026C00000AF44F61F6000F05DF844F61F6000F073F800F0DDFC0346FB710A4A094B1B78DBB243F01003DBB21370FB79184600F0D3FC00F06FF8002000F028F800BF083767
:40270000BD4680BD9665004080B400AF054A054B1B78DBB263F07F03DBB2137000BFBD4680BC70477465004080B500AF064B1B78002B04D1FFF7C2FF034B01221A70FFF759
:40274000E3FF00BF80BD00BF648CFF1F80B483B000AF0346FB71044AFB79137000BF0C37BD4680BC704700BF8665004080B400AF034B1B78DBB21846BD4680BC704700BF58
:402780006665004080B582B000AF78607968034800F086FC00BF0837BD4680BD2465004080B400AF034B1B6823F07F431846BD4680BC70474465004080B582B000AF7860C7
:4027C0007968034800F06CFC00BF0837BD4680BD0465004080B500AF01E0FFF7E1FFFFF7C5FF034603F00803002BF6D100BF80BD80B582B000AF786000F03CF8786800F002
:4028000009F8072000F018F800F028F800BF0837BD4680BD80B485B000AF7860054B1B68FB60FB6850337A681A6000BF1437BD4680BC704708ED00E080B483B000AF03468E
:40284000FB71054AFB795B01DBB2137000BF0C37BD4680BC704700BF04E400E080B400AF034B10221A6000BFBD4680BC704700BF00E100E080B400AF034B10221A6000BF90
:40288000BD4680BC704700BF80E100E080B400AF034B10221A6000BFBD4680BC704700BF80E200E080B582B000AF786000F03CF8786800F009F8012000F018F800F028F87B
:4028C00000BF0837BD4680BD80B485B000AF7860054B1B68FB60FB6844337A681A6000BF1437BD4680BC704708ED00E080B483B000AF0346FB71054AFB795B01DBB2137077
:4029000000BF0C37BD4680BC704700BF01E400E080B400AF034B02221A6000BFBD4680BC704700BF00E100E080B400AF034B02221A6000BFBD4680BC704700BF80E100E093
:4029400080B400AF034B02221A6000BFBD4680BC704700BF80E200E080B582B000AF786000F03CF8786800F009F8072000F018F800F028F800BF0837BD4680BD80B485B011
:4029800000AF7860054B1B68FB60FB6848337A681A6000BF1437BD4680BC704708ED00E080B483B000AF0346FB71054AFB795B01DBB2137000BF0C37BD4680BC704700BFA2
:4029C00002E400E080B400AF034B04221A6000BFBD4680BC704700BF00E100E080B400AF034B04221A6000BFBD4680BC704700BF80E100E080B400AF034B04221A6000BFF5
:402A0000BD4680BC704700BF80E200E080B582B000AF0F4800F05EF80D4800F075F800F037FB0346FB710B4A0A4B1B78DBB243F01003DBB21370FB79184600F02DFB00F069
:402A400071F8002000F02AF800BF0837BD4680BD3F0D03009A64004080B400AF054A054B1B78DBB263F07F03DBB2137000BFBD4680BC70477A64004080B500AF064B1B78CE
:402A8000002B04D1FFF7C2FF034B01221A70FFF7E3FF00BF80BD00BF658CFF1F80B483B000AF0346FB71044AFB79137000BF0C37BD4680BC704700BF8A64004080B400AFEA
:402AC000034B1B78DBB21846BD4680BC704700BF6A64004080B582B000AF78607968034800F0DEFA00BF0837BD4680BD2865004080B400AF034B1B6823F07F431846BD4670
:402B000080BC70474865004080B582B000AF78607968034800F0C4FA00BF0837BD4680BD0865004080B500AF01E0FFF7E1FFFFF7C5FF034603F00803002BF6D100BF80BD78
:402B400080B500AF064B1B78002B04D100F00AF8034B01221A7000F015F800BF80BD00BF668CFF1F80B400AF044B72221A70044B3E221A7000BFBD4680BC70478664004070
:402B80008464004080B582B000AF00F081FA0346FB710D4A0C4B1B78DBB243F02003DBB213700A4A094B1B78DBB243F01003DBB2137000F089F8FB79184600F06DFA00BF0C
:402BC0000837BD4680BD00BF966400409464004080B582B000AF00F05BFA0346FB710D4A0C4B1B78DBB223F02003DBB2137000F085F8094A084B1B78DBB223F01003DBB21B
:402C00001370FB79184600F047FA00BF0837BD4680BD00BF966400409464004080B483B000AF064B1B78DBB203F07F03FB71FB7918460C37BD4680BC704700BF6464004065
:402C400080B483B000AF0023FB710C4B1B78BB71BB7903F02003002B09D0094B1B78FB71BB7903F01E03002B01D00023FB71FB7918460C37BD4680BC704700BF6464004053
:402C80004765004080B582B000AF00F001FA0346FB710C4A0B4B1B78DBB243F00103DBB21370084A074B1B78DBB223F00103DBB21370FB79184600F0EFF900BF0837BD46C9
:402CC00080BD00BF9765004080B400AF094A094B1B78DBB243F02003DBB21370064A064B1B78DBB243F02003DBB2137000BFBD4680BC7047A2430040B243004080B400AF73
:402D0000094A094B1B78DBB223F02003DBB21370064A064B1B78DBB223F02003DBB2137000BFBD4680BC7047A2430040B243004080B582B000AF786000F03CF8786800F08E
:402D400009F8012000F018F800F028F800BF0837BD4680BD80B485B000AF7860054B1B68FB60FB6840337A681A6000BF1437BD4680BC704708ED00E080B483B000AF03465F
:402D8000FB71054AFB795B01DBB2137000BF0C37BD4680BC704700BF00E400E080B400AF034B01221A6000BFBD4680BC704700BF00E100E080B400AF034B01221A6000BF6D
:402DC000BD4680BC704700BF80E100E080B400AF034B01221A6000BFBD4680BC704700BF80E200E080B483B000AF0346FB71044AFB79137000BF0C37BD4680BC704700BF92
:402E00007D64004080B500AF264A264B1B78DBB203F00103DBB21370234A234B1B78DBB223F00303DBB213701E4A1E4B1B78DBB243F00403DBB213701C4A1C4B1B78DBB239
:402E400023F03003DBB21370184A184B1B78DBB243F03003DBB21370144A144B1B78DBB223F00F03DBB21370104A104B1B78DBB243F00F03DBB213700D4A0D4B1B78DBB296
:402E800043F00103DBB2137041F64B5000F07CF841F64B5000F08AF8082000F065F800BF80BD00BF0C4F00400E4F0040174F00400D4F004080B400AF0D4A0D4B1B78DBB2F5
:402EC00043F00203DBB213700A4A0A4B1B78DBB243F00203DBB21370074A074B1B78DBB243F00103DBB2137000BFBD4680BC7047A3430040B34300400C4F004080B500AFDF
:402F0000064B1B78002B04D1FFF77CFF034B01221A70FFF7CFFF00BF80BD00BF678CFF1F80B400AF0D4A0D4B1B78DBB223F00103DBB213700A4A0A4B1B78DBB223F00203F7
:402F4000DBB21370074A074B1B78DBB223F00203DBB2137000BFBD4680BC70470C4F0040A3430040B343004080B483B000AF0346FB71044AFB79137000BF0C37BD4680BC59
:402F8000704700BF0F4F004080B485B000AF0346FB80FB88FB81044AFB89138000BF1437BD4680BC704700BF104F004080B483B000AF0346FB80044AFB88138000BF0C371F
:402FC000BD4680BC704700BF124F004080B582B000AF786000F03CF8786800F009F8032000F018F800F028F800BF0837BD4680BD80B485B000AF7860054B1B68FB60FB68A6
:4030000088337A681A6000BF1437BD4680BC704708ED00E080B483B000AF0346FB71054AFB795B01DBB2137000BF0C37BD4680BC704700BF12E400E080B400AF034B4FF4A9
:4030400080221A6000BFBD4680BC704700E100E080B400AF034B4FF480221A6000BFBD4680BC704780E100E080B400AF034B4FF480221A6000BFBD4680BC704780E200E0B1
:403080000230800803D000BF01380046FCD17047EFF3108072B6704780F31088704700BF80B485B000AF786039607B68FB603B68DAB2FB681A70FB6801333A68120AD2B233
:4030C0001A70FB6802333A68120CD2B21A7000BF1437BD4680BC704781F0004102E000BF83F0004330B54FEA41044FEA430594EA050F08BF90EA020F1FBF54EA000C55EAA8
:40310000020C7FEA645C7FEA655C00F0E2804FEA5454D4EB5555B8BF6D420CDD2C4480EA020281EA030382EA000083EA010180EA020281EA0303362D88BF30BD11F0004F93
:403140004FEA01314FF4801C4CEA113102D0404261EB410113F0004F4FEA03334CEA133302D0524263EB430394EA050F00F0A780A4F10104D5F1200E0DDB02FA0EFC22FA33
:4031800005F2801841F1000103FA0EF2801843FA05F359410EE0A5F120050EF1200E012A03FA0EFC28BF4CF0020C43FA05F3C01851EBE37101F0004507D54FF0000EDCF1E7
:4031C000000C7EEB00006EEB0101B1F5801F1BD3B1F5001F0CD349085FEA30004FEA3C0C04F101044FEA445212F5800F80F09A80BCF1004F08BF5FEA500C50F1000041EB1F
:40320000045141EA050130BD5FEA4C0C404141EB010111F4801FA4F10104E9D191F0000F04BF01460020B1FA81F308BF2033A3F10B03B3F120020CDA0C3208DD02F1140C5C
:40324000C2F10C0201FA0CF021FA02F10CE002F11402D8BFC2F1200C01FA02F120FA0CFCDCBF41EA0C019040E41AA2BF01EB0451294330BD6FEA04041F3C1CDA0C340EDC95
:4032800004F11404C4F1200220FA04F001FA02F340EA030021FA04F345EA030130BDC4F10C04C4F1200220FA02F001FA04F340EA0300294630BD21FA04F0294630BD94F0BB
:4032C000000F83F4801306BF81F480110134013D4EE77FEA645C18BF7FEA655C29D094EA050F08BF90EA020F05D054EA000C04BF1946104630BD91EA030F1EBF002100200C
:4033000030BD5FEA545C05D14000494128BF41F0004130BD14F580043CBF01F5801130BD01F0004545F0FE4141F470014FF0000030BD7FEA645C1ABF194610467FEA655C68
:403340001CBF0B46024650EA013406BF52EA033591EA030F41F4002130BD00BF90F0000F04BF0021704730B54FF4806404F132044FF000054FF0000150E700BF90F0000F38
:4033800004BF0021704730B54FF4806404F1320410F0004548BF40424FF000013EE700BF42004FEAE2014FEA31014FEA02701FBF12F07F4393F07F4F81F06051704792F087
:4033C000000F14BF93F07F4F704730B54FF4607401F0004521F0004120E700BF50EA010208BF704730B54FF000050AE050EA010208BF704730B511F0004502D5404261EB40
:4034000041014FF4806404F132045FEA915C3FF4DCAE4FF003025FEADC0C18BF03325FEADC0C18BF033202EBDC02C2F1200300FA03FC20FA02F001FA03FE40EA0E0021FA52
:4034400002F11444C1E600BF70B54FF0FF0C4CF4E06C1CEA11541DBF1CEA135594EA0C0F95EA0C0F00F0DEF82C4481EA030621EA4C5123EA4C5350EA013518BF52EA0335FF
:4034800041F4801143F4801338D0A0FB02CE4FF00005E1FB02E506F00042E0FB03E54FF00006E1FB03569CF0000F18BF4EF0010EA4F1FF04B6F5007F64F5407404D25FEAE0
:4034C0004E0E6D4146EB060642EAC62141EA55514FEAC52040EA5E504FEACE2EB4F1FD0C88BFBCF5E06F1ED8BEF1004F08BF5FEA500E50F1000041EB045170BD06F00046F4
:4035000046EA010140EA020081EA0301B4EB5C04C2BFD4EB0C0541EA045170BD41F480114FF0000E013C00F3AB8014F1360FDEBF002001F0004170BDC4F10004203C35DAC9
:403540000C341BDC04F11404C4F1200500FA05F320FA04F001FA05F240EA020001F0004221F0004110EBD37021FA04F642EB06015EEA430E08BF20EAD37070BDC4F10C0464
:40358000C4F1200500FA04F320FA05F001FA04F240EA020001F0004110EBD37041F100015EEA430E08BF20EAD37070BDC4F1200500FA05F24EEA020E20FA04F301FA05F281
:4035C00043EA020321FA04F001F0004121FA04F220EA020000EBD3705EEA430E08BF20EAD37070BD94F0000F0FD101F00046400041EB010111F4801F08BF013CF7D041EA81
:40360000060195F0000F18BF704703F00046520043EB030313F4801F08BF013DF7D043EA0603704794EA0C0F0CEA135518BF95EA0C0F0CD050EA410618BF52EA4306D1D180
:4036400081EA030101F000414FF0000070BD50EA410606BF1046194652EA430619D094EA0C0F02D150EA013613D195EA0C0F05D152EA03361CBF104619460AD181EA030154
:4036800001F0004141F0FE4141F470014FF0000070BD41F0FE4141F4780170BD70B54FF0FF0C4CF4E06C1CEA11541DBF1CEA135594EA0C0F95EA0C0F00F0A7F8A4EB050401
:4036C00081EA030E52EA03354FEA013100F088804FEA03334FF0805545EA131343EA12634FEA022245EA111545EA10654FEA00260EF000419D4208BF964244F1FD0404F55C
:40370000407402D25B084FEA3202B61A65EB03055B084FEA32024FF480104FF4002CB6EB020E75EB030E22BFB61A754640EA0C005B084FEA3202B6EB020E75EB030E22BF60
:40374000B61A754640EA5C005B084FEA3202B6EB020E75EB030E22BFB61A754640EA9C005B084FEA3202B6EB020E75EB030E22BFB61A754640EADC0055EA060E18D04FEA3C
:40378000051545EA16754FEA06164FEAC30343EA52734FEAC2025FEA1C1CC0D111F4801F0BD141EA00014FF000004FF0004CB6E711F4801F04BF01430020B4F1FD0C88BF0D
:4037C000BCF5E06F3FF6AFAEB5EB030C04BFB6EB020C5FEA500C50F1000041EB045170BD0EF0004E4EEA113114EB5C04C2BFD4EB0C0541EA045170BD41F480114FF0000E4C
:40380000013C90E645EA060E8DE60CEA135594EA0C0F08BF95EA0C0F3FF43BAF94EA0C0F0AD150EA01347FF434AF95EA0C0F7FF425AF104619462CE795EA0C0F06D152EA1B
:4038400003353FF4FDAE1046194622E750EA410618BF52EA43067FF4C5AE50EA41047FF40DAF52EA43057FF4EBAE12E74A0011D212F5001211D20DD56FF47873B3EB6252CF
:403880000ED44FEAC12343F0004343EA505323FA02F070474FF00000704750EA013002D14FF0FF3070474FF0000070474FEA4102B2F1E04324BFB3F5001CDCF1FE5C0DD9B8
:4038C00001F0004C4FEAC0024CEA5070B2F1004F40EB830008BF20F00100704711F0804F21D113F13872BCBF01F00040704741F480114FEA5252C2F11802C2F1200C10FA3F
:403900000CF320FA02F018BF40F001004FEAC1234FEAD32303FA0CFC40EA0C0023FA02F34FEA4303CCE77FEA625307D150EA01331EBF4FF0FE4040F44000704701F000408F
:4039400040F0FE4040F40000704700BF80F0004002E000BF81F0004142001FBF5FEA410392EA030F7FEA226C7FEA236C6AD04FEA1262D2EB1363C1BFD218414048404140F4
:40398000B8BF5B42192B88BF704710F0004F40F4000020F07F4018BF404211F0004F41F4000121F07F4118BF494292EA030F3FD0A2F1010241FA03FC10EB0C00C3F1200302
:4039C00001FA03F100F0004302D5494260EB4000B0F5000F13D3B0F1807F06D340084FEA310102F10102FE2A51D2B1F1004F40EBC25008BF20F0010040EA0300704749007E
:403A000040EB000010F4000FA2F10102EDD1B0FA80FCACF1080CB2EB0C0200FA0CF0AABF00EBC25052421843BCBFD0401843704792F0000F81F4000106BF80F40000013217
:403A4000013BB5E74FEA41037FEA226C18BF7FEA236C21D092EA030F04D092F0000F08BF0846704790EA010F1CBF0020704712F07F4F04D1400028BF40F00040704712F149
:403A800000723CBF00F50000704700F0004343F0FE4040F4000070477FEA226216BF08467FEA23630146420206BF5FEA412390EA010F40F4800070474FF0000304E000BF88
:403AC00010F0004348BF40425FEA000C08BF704743F0964301464FF000001CE050EA010208BF70474FF000030AE000BF50EA010208BF704711F0004302D5404261EB41010D
:403B00005FEA010C02BF84460146002043F0B64308BFA3F18053A3F50003BCFA8CF2083AA3EBC25310DB01FA02FC634400FA02FCC2F12002BCF1004F20FA02F243EB02009D
:403B400008BF20F00100704702F1200201FA02FCC2F1200250EA4C0021FA02F243EB020008BF20EADC70704742000ED2B2F1FE4F0BD34FF09E03B3EB126209D44FEA00231F
:403B800043F0004323FA02F070474FF00000704712F1610F01D1420202D14FF0FF3070474FF00000704700BF002101F0E1BF0000014B1868704700BF7C81FF1F0E4B70B510
:403BC0001E460E4C0025E41AA410A54204D056F8253098470135F8E705F09EFA084B094C1E46E41AA4100025A54204D056F8253098470135F8E770BD249100002491000085
:403C0000249100002C91000070B50E46B1F90E1090B0002914461D4606DA00232B60B3891A060ED540230EE001AA03F0A9F90028F3DB029A02F47042A2F500535A425A41F2
:403C40002A604FF480630020236010B070BD00008B8973B59E0705460C4610D401AB6A46FFF7D2FF00990646284600F08DF868B9B4F90C309A0522D443F00203A38104F1C7
:403C80004703236023610123636118E00D4BAB62A389206043F08003A381009B20616361019B4BB1B4F90E10284603F0B7FC18B1A38943F00103A381A0893043A08102B0D2
:403CC00070BD00BF296E000010B5431E0A44914204D011F8014B03F8014FF8E710BD03460244934202D003F8011BFAE77047000038B50546002944D051F8043C0C1F002BA1
:403D0000B8BFE41803F0E1FC1E4A1368114613B96360146030E0A3420DD92268A018834201BF18685B681218226063600C6023E0A24203D813465A68002AF9D118681918C1
:403D4000A1420BD12168014458188242196013D110685268014419605A600DE002D90C232B6009E021686018824201BF106852680918216062605C602846BDE8384003F0BB
:403D8000A5BC38BD6C8CFF1F70B5CD1C25F0030508350C2D38BF0C25002D064601DBA94202D90C23336046E003F08FFC234B1C681A462146A1B10B685B1B0ED40B2B03D965
:403DC0000B60CC18CD501EE08C420BBF63684B681360636018BF0C4615E00C464968E9E7174C23681BB9304600F0B4FF20602946304600F0AFFF431C18D0C41C24F00304FC
:403E0000A0420DD12560304603F060FC04F10B00231D20F00700C31A0ED05A42E25070BD211A304600F096FF0130EBD10C233360304603F04BFC002070BD00BF6C8CFF1FB4
:403E4000688CFF1F936810B4013B002B936008DA9469A34202DBCBB20A2B02D110BC02F02BB81368581C10601970C8B210BC7047F8B506460F461446D518AC4208D03A4690
:403E800014F8011B3046FFF7DDFF431CF5D100E00020F8BD2DE9F04F9DB00C4617460393064618B183690BB902F0FEFF7F4B9C4201D1746808E07E4B9C4201D1B46803E067
:403EC0007C4B9C4208BFF468A38918070CD5236953B10023099320238DF8293030238DF82A30DFF8D4B144E02146304602F04AF80028EED04FF0FF30D5E0039A111D12684D
:403F00000391002A80F28C80524243F002000792049098F800302E2B00F08480032298F80010654803F0A8FB48B14023CBEB000003FA00F0049B08F101081843049098F81B
:403F4000001006225D4808F101078DF8281003F093FB002800F09580594B002B40F08880039B073323F0070308330393099B53440993B846454615F8013B1BB9B8EB0709FB
:403F80000FD003E0252BF9D0A846F3E74B463A4621463046FFF76CFF01307FD0099B4B44099398F80030002B78D000234FF0FF3204930793059206938DF853301A930127BC
:403FC000052229783F4803F057FB05F10108049B38B13C4A4546801A07FA00F018430490EEE7D90644BF20228DF853201A0744BF2B228DF853202A782A2A3FF47EAF079ACA
:4040000000210A20A84698F800300135303B092B03D800FB02320121F4E700293FF479AF079276E798F801302A2B0BD1039B08F102081A1D1B680392002BB8BF4FF0FF333C
:4040400005936BE700231946059308F101000A25804698F800200130303A092A03D805FB01210123F4E7002B3FF458AF059155E703AB00932246144B04A9304600F0B8F8D1
:4040800007E003AB009322460F4B04A9304600F069FBB0F1FF3F82467FF468AFA3895B063FF528AF09981DB0BDE8F08FB08F0000D08F0000F08F0000EA8D0000EE8D000035
:4040C000F1410000E48D0000713E00002DE9F04788B0149F002B1E461299B8BF03F1004327F02007B6BF1E4600232D23462F1446109DDDF84CA00B7003D0452F03D10135BB
:4041000001E0032300E0022307AA049206AA03928DE828042246334602F03EF8472F804602D1119BDB0728D5462F08EB050911D198F80030302B0AD1002200232046314633
:4041400004F066FA18B9C5F10105CAF80050DAF800309944002200232046314604F058FA08B9302202E0CDF81C9006E0079B994503D9591C07911A70F8E74046079B159A10
:40418000C8EB0303136008B0BDE8F087034673B50029B8BF494203F8022BB4BF2D222B22092942701ADD0DF1070216460A2591FBF5F405FB1411092C01F1300102F8011DB5
:4041C0002146F4DC3031541E02F8011CB4421A460AD214F8012B03F8012BF7E71A463024214402F8024B5970101A02B070BD00002DE9F04F91B00C46DDF8688016461F4697
:40420000054603F01BFA03681846099300F084FE00230E93D8F800300A90073323F0070303F1080294F81890D4F800B0C8F80020D3E90023C4E91223D4F84CA0D4F8488004
:404240002AF000430B934FF0FF32A74B40460B9904F010FAA0B94FF0FF32A34B40460B9904F0EAF960B9002200234046514604F0D9F910B12D2384F843309C4B9C4A0AE009
:40428000424653464046514604F0F4F9002800F09281984B984AB9F1470F8CBF90469846032323612BF0040323604FF0000A3DE0B9F1670F00F08A81B9F1470F00F0868129
:4042C00023600193636800210DF13302059002920093424653460691CDF81090CDF80CE02846FFF7F3FE09F0DF03472B804600F08481B9F1650F0D9900F28D8101394A4613
:4043000004F150000D91FFF741FF0E9A82468318012A236100F37C812268D10700F178819DF8333013B12D2384F84330009733460FAA2146284600F09FF9013002D14FF00A
:40434000FF3096E123685A0501D4236965E0B9F1650F40F2D580D4E912010022002304F057F978B30123654A31462846B8470130E5D00E9B0D9A9A420BDB2368D80708D4E9
:4043800023689B0740F111814FF0000804F1190906E10A9B099A31462846B8470130CED04FF0000804F11A090E9B013B9845E7DA01234A4631462846B8470130BFD008F19A
:4043C0000108F1E70D9B002B29DC01234B4A31462846B8470130B2D00D9B23B90E9B13B92368D907CCD50A9B099A31462846B8470130A4D04FF0000904F11A0A0D9B5B4238
:40440000994509DA0123524631462846B847013095D009F10109F1E70E9B4246A7E00E9AA36D9A42A8BF1A46002A914606DC4FF0000A29EAE97904F11A0B11E0134631461A
:4044400042462846B8470130F1D178E701235A4631462846B84701303FF471AF0AF1010AA36DC9EB03029245F0DB08EB03090D9A0E9B9A420FDB2368DA070CD40E9B0D9AA7
:404480009844C9EB08089B1A9845A8BF9846B8F1000F08DC0FE00A9B099A31462846B8470130EBD14BE743464A4631462846B84701303FF444AF4FF0000928EAE87804F1AC
:4044C0001A0A09E00123524631462846B84701303FF435AF09F101090D9A0E9B9B1AC8EB03039945EEDB4BE7FFFFEF7FF58D0000F98D0000FD8D0000018E00004A8E0000C7
:404500000E9A012A01DCDB0738D50123424631462846B84701303FF412AF0A9B099A31462846B84701303FF40AAFD4E912010022002304F06DF820B14FF0000804F11A0940
:404540000EE00E9B08F10102013B19E001234A4631462846B84701303FF4F1AE08F101080E9B013B9845F1DB534604F1500231462846B84701307FF403AFE0E642460123BC
:4045800031462846B8470130EED1D8E601234A4631462846B84701303FF4D1AE08F10108E3680F9A9B1A9845F0DBE0680F9B9842B8BF18465DE062680EA8531C0DF1340E8E
:4045C0004BF480637FF474AE062201E012B90122626075E6002106910DF133018DE80C00236005904246CDF81090CDF80CE0029153462846FFF76AFD80460D9BD81C02DB99
:40460000626893421DDDA9F102095FFA89F970E60133236184E6B9F1660F14D10029636807DD216113B92268D2071DD501330B4419E013B92268D00701D5023313E001239F
:4046400011E04FF067090D9B0E9A934205DB22682361D10708D5013305E0002BD4BFC3F102030123134423610D9B4FF0000AA36556E611B0BDE8F08F2DE9F04791461F46A0
:404680000A698B6806469342B8BF1346C9F8003091F843200C46DDF8208012B10133C9F800302368990642BFD9F800300233C9F80030256815F0060510D104F1190A07E048
:4046C0000123524639463046C04701301AD00135E368D9F800209B1A9D42F1DB94F843302268003318BF012392060FD5E118302081F843005A1C94F845102244023382F871
:40470000431003E04FF0FF30BDE8F08704F1430239463046C0470130F4D02268D9F80050E36802F00602042A08BF5D1B2269A3680CBF25EAE57500259342C4BF9B1AED1830
:404740004FF000091A344D4509D00123224639463046C0470130D5D009F10109F3E70020BDE8F0872DE9F04317460A7E85B06E2A984606460C460C9B01F1430E00F0AE8041
:4047800011D8632A22D009D8002A00F0BB80582A40F0CA8081F84520834955E0642A1ED0692A1CD0C0E0732A00F0B08009D86F2A2ED0702A40F0B8800A6842F020020A607E
:4047C0003EE0752A24D0782A3AD0ADE01A6801F14205111D1960136884F84230A8E021681A6811F0800F02D0111D196008E011F0400F02F10401196002D0B2F9003000E032
:404800001368002B3CDA2D225B4284F8432037E021681A6811F0800F02D0111D196007E011F0400F02F10401196001D0138800E01368227E5C496F2A14BF0A2208221BE055
:4048400078225A4984F845202268186812F0800F00F104051D6003D1550601D5038800E00368D00744BF42F0200222601BB9226822F0200222601022002084F8430001E077
:4048800049490A226568002DA56008DB206820F0040020602BB9002D7DD175460CE0002B79D07546B3FBF2F002FB1033CB5C05F8013D03460028F5D1082A0BD12368DA0724
:4048C00008D5236962689A42DEBF302305F8013C05F1FF35C5EB0E0323612EE008681A6810F0800F496903D0101D1860136808E010F0400F02F104001860136801D0198051
:4049000000E0196000232361754616E01A68111D1960156800216268284602F0ADFE08B1401B6060636804E004F1420584F8422001232361002384F84330CDF800803B460D
:4049400003AA21463046FFF797FE013002D14FF0FF3026E023692A4639463046C0470130F5D023689B0710D5002504F1190907E001234A4639463046C0470130E7D00135B9
:40498000E368039A9B1A9D42F2DBE068039B9842B8BF184605E00B7804F1420584F842308AE705B0BDE8F083058E0000168E00002DE9F84315468A6880460C4632B98A697E
:4049C000002A0CBF01224FF0FF328A602268DFF8A890D10658BF1A684FF000065EBF111D19601768A069F8B923680136DA065EBF2B681B783B702A686B6802F101022A6085
:404A0000A26803F1FF3302F1FF326B6058BF0137A260E2B1002BE5DCD4F880312946404698470028DED012E0012806D12B681A7863699B5C002BD7D119E0022807D12B6825
:404A4000D9F800201B7813445B781B07CCD5236813F0100305D1E2680132E260A26902B13B70236900201E442661BDE8F883002EEDD1BDE8F88300BF8081FF1F2DE9F04F32
:404A80000C469A46724B87B08346164693E8070003ABA76883E807006E4BA1696E4A04F11C09032918BF1A467B1EB3F5AE7F84BF40F25D13A360236888BF6FF4AE7543F41D
:404AC000506323604B4600928CBF7F1900274FF000083168019303AB53F828000222097802F0CAFD019B002833D0B8F1010F0BD162682AB908226260226842F400722260B7
:404B0000226822F4A0620CE0B8F1020F0AD1226802F4C061B1F5007F1BD11021616042F480722260A268511EA16092B132685D1C511C316012781A707368013B002B73600D
:404B400006DCD4F88031314658469847002841D12B4608F10108B8F1030FBAD162680AB90A22626062683D496069891A019300F001F9019B4FF000081D46A36863B331683A
:404B800060690A78805C38B3302A226808D1100506D508F1010857B10133013FA36006E022F4106222600B78013505F8013C7368013B002B736003DD33680133336005E096
:404BC000D4F8803131465846984728B9A368013BA360D2E74FF000082368D9050CD54D4508D915F8011C6F1ED4F87C313246584698473D464D4527D0226812F010021BD1A1
:404C00002A70636849465846009EB0472268DAF8003012F0200F07D1D20705D51A1DCAF800201B68188004E01A1DCAF800201B681860E3680133E3602369C9EB0505454444
:404C40001D442561002000E0012007B0BDE8F08F288E0000495D00003D5C0000448E00000FB40A4B13B51C6824B1A36913B9204602F01AF905AB049AA16820460193FFF7C7
:404C800009F902B0BDE8104004B070477C81FF1F70B50E46054618B183690BB902F004F9AB69AC6813B9284602F0FEF8224B9C4201D16C6808E0214B9C4201D1AC6803E063
:404CC0001F4B9C4208BFEC68A3891B0701D523693BB92146284601F055F910B14FF0FF3070BD013EA36816F8011F013BA36091B1002B04DAA269934206DB0A2904D02368E8
:404D00005A1C22601970EDE72246284601F0D4F80130E7D1E2E7002B08DA22460A21284601F0CAF80130D9D00A2070BD23680A205A1C2260187070BDB08F0000D08F0000E7
:404D4000F08F0000024B01461868FFF7A1BF00BF7C81FF1F38B5064C0023054608462360FCF796FB431C02D1236803B12B6038BDEC8DFF1F70B50B78441E5E2B13BF4A1C1B
:404D80008A1C4B78002108BF012100F1FF0504F8011FAC42FBD10BB9501E70BD81F001041146C4540D784A1C2D2D06D05D2D0FD00DB12B46F4E7084670BD4E785D2EF8D04F
:404DC000B342F6DC023101339E42C454FBDCE9E7104670BD0EB400B54FF402719CB0ADF814106FF00041049107914FF6FF711DAB02900690084853F8042BADF816100068B2
:404E000002A9019303F0D8F8029B00221A701CB05DF804EB03B070477C81FF1F0EB430B59CB01FAC4FF4017254F8045BADF814200290069000F070F80B4B03900B93002370
:404E40000F9314934FF6FF7307900848ADF816302A46234602A90068019403F0FDF91CB0BDE8304003B07047934E00007C81FF1F10B50C46B1F90E1003F042FB0028ABBF0E
:404E8000636DA3891B1823F48053ACBF6365A38110BD002070472DE9F0411F468B890546DB050C46164605D502230022B1F90E1002F0C8FBA389324623F48053A381B4F948
:404EC0000E103B462846BDE8F04101F049B810B50C46B1F90E1002F0B5FB431CA38915BF606523F4805343F48053A38118BFA38110BDB1F90E1001F0B3B8024610B51346CE
:404F00001C780132002CFAD1013B11F8012B03F8012F002AF9D110BD034613F8012B002AFBD1181A013870472DE9F0410F46904602F092FE04460D46B8F1000F11D0C7F3DA
:404F40000A53C3F16B03002B0BDD1B0503F17F55002405F5401522462B46FEF775FABDE8F08120462946BDE8F0810000000000002DE9F04F82460C469DB0002313921893D7
:404F80004FF000084FF000091791179B1A780D2A05D8092A13D2002A00F0AD8112E02B2A04D02D2A04D0202A0CD108E0002200E001220C925A1C17925B782BB99BE1013364
:404FC0001793E2E700230C93179D2B78302B5CD16B78582B01D0782B4CD10C9BA84A019318AB009317A919AB504602F044F810F00706044600F08585062E05D10135002327
:4050000017950C9300F07DBD189A3AB135211AA802F009FF1899504602F08EFB062E22D8DFE806F0040D08181D0D04004FF00009C84618E0DDF86880DDF86C9013E01B9BBB
:40504000199A23F4801302F23342DDF8688043EA025908E0DFF82C924FF0000803E06FF000494FF0FF38210740F14B8549F0004900F047BD179B5A1C17925B78302BF9D0F9
:40508000002B00F03E85012300E000230593179B0A22069300239B4602930493179D2E78A6F13003D9B2092911D8BBF1080FD5BF0499029902FB013302FB013305F10105F5
:4050C000D4BF049302930BF1010B1795E6E7504602F0B4FA0768504602F0B0FA0068FFF71BFF39460246284603F01CFA074628B1002033465D46024601465AE0504602F030
:405100009DFA0068FFF708FF179B1A1817921B5CBBF1000F45D15846302B05D1179B01305A1C17925B78F7E7A3F13102082A46D8179A0692024600200546303B00F10101AB
:4051400029D00A44294605EB000C0A2661450FD0013101F1FF3EBEF1080F03DC049F77430497F3E71029DEBF029F77430297EDE72844082800F1010505DC04980A2101FB1B
:405180000033049306E0102DDFBF02980A2101FB003302930021179B581C17905B78084602E05D4638463A46A3F130010929C4D90121652B01D0452B4FD16DB904E0652B08
:4051C00040F0AD840022012128B9059B002B00F09280054600E00025179C631C179363782B2B06D02D2B02D00026039606E0012300E000230393A31C1793A378A3F130064F
:40520000092E29D8302B04D1179B5E1C17965B78F8E7A3F13106082E1FD8A3F1300E179B1F46179B5E1C17965B78A3F1300CBCF1090F05D80A2606FB0E3EAEF1300EF0E74B
:40524000F61B082E44F61F6602DC7645A8BF7646039F1FB1764201E017940026002D52D1002840F04E84059A002A40F04A84002941D14E2B20D007DC492B0AD03BE000BFA0
:40528000648E00000000F07F692B02D06E2B13D031E0AA4917A802F01FF960B3179BA849013B17A8179302F017F910B9179B01331793DFF8A8921AE0A24917A802F00CF97C
:4052C000C8B1179B1B78282B0FD11AAA9E4917A802F015F9052808D11B9BDDF8688043F0FF4949F4E00900F00CBCDFF874924FF0000800F006BC139B1794002B00F00C84A7
:4053000000230C93FFE32C46BBF1000F08BFAB460498102DA8BF1024B71AFEF71FF8092C8046894613DD894B03EBC40353E91223FEF78AF8804602988946FEF70FF80246F5
:405340000B4640464946FDF7CDFE804689460F2D33DC002F00F0D58322DD162F07DC7B4D424605EBC7014B46D1E9000113E0C5F125039F4221DC754CC5F10F0504EBC50147
:405380007D1B4246D1E900014B4604EBC504FEF75BF8D4E90023FEF757F880468946B0E317F1160F09DB694D4046A5EBC703D3E900234946FEF772F9EFE72C1B3C44002CF7
:4053C0005DDD14F00F010AD0604B424603EBC101D1E900014B46FEF737F88046894634F00F0400F0C180B4F59A7F0FDD4FF0000BCDF808B0CDF814B0CDF810B02223CAF8AB
:405400000030DFF858914FF0000889E14046494600234F4E24110293012C0CDDE20704D5D6E90023FEF710F80123029A6410013202920836F0E70BB180468946444B029AE9
:40544000A9F1547903EBC201D1E9000142464B46FDF7FAFF21F0004389460A461B0D3D491B058B428046C1D8A1F580118B4286BFDFF8F0904FF0FF3802F1547974E073D089
:40548000644214F00F020AD0304B404603EBC2034946D3E90023FEF701F980468946241162D01F2C08DD4FF0000BCDF808B0CDF814B0CDF810B02CE14046494614F0100F00
:4054C0000CBF00236A23244E03930023002C09DDE20704D5D6E90023FDF7B6FF012364100836F3E70BB180468946039BEBB1C9F30A53C3F16B03002B494616DD1F2B0EDD4F
:40550000342BDEBF203B4FF0FF3202FA03F34FF00008CCBF4FF05C7903EA010905E04FF0FF3202FA03F303EA0808002200234046494603F06DF80028B5D117E0FA8D0000B3
:40554000A48F0000028E0000508E000018900000F09000000000A07C788E00000000F07F0000F8FFFFFFEF7F00230393049B5A46009306992B46504602F030F90590002865
:405580003FF434AF002FC7F10003A8BF00230D934FF0000B27EAE7731293CDF808B0059B5046596802F093F8049000283FF426AF059B0C301A6903F10C0102329200FEF797
:4055C00083FB1AAB019319AB009342464B465046CDE9088902F0B1FB189000283FF40EAF0121504602F085F9029000283FF406AF199B0399002BACBF0D9A129A1A9CACBF05
:40560000D618D21AA3EB01032344B14903F1FF33ACBF129A0D9E8B42C4F1360480F28580C91A1F29C8BFAB4D4FF00107D4BF07FA01F3ED1AA4EB0104D9BF0793002507FA16
:4056400005F507973719039BBE4214441C443346A8BF3B46A342A8BF2346002BC2BFFF1AE41AF61A0D9B002B63D1002F7ADC129B002B40F08180002C00F38880002E00F326
:405680008F80049A1899504602F087FA834600283FF4B4AEC3680024C4600299069302F060FAA04280F28B80069B002B40F00282B8F1000F40F0FE81C9F31303002B40F097
:4056C000F98129F000431B0D1B05B3F1D66F40F2F181DBF81430002B6CD059460122504602F0EEF90299834602F03BFA002840F3E18129F00043039A1B0D1B05002A00F0AD
:405700008D80B3F1D66F00F38980B3F15C7F00F3D38122234FF000084FF00009CAF80030059B002B40F0D981EBE101230025079388E71A460299504602F074F902900028CE
:405740003FF45CAE0146189A504602F0DBF8069000283FF453AE1899504601F0EDFF069B189382E73A461899504602F0A9F9189000287FF47CAF41E6129A0499504602F00C
:4057800051F9049000287FF476AF37E622460499504602F095F9049000287FF46FAF2DE632460299504602F08BF9029000287FF468AF23E6DBF81030012B8EDC7AE161D111
:4057C000069AC9F3130322B343494A468B422ED1039B414663B1414B1340B3F1D46F07D81B0DC3F16B034FF0FF3000FA03F301E04FF0FF338B421AD139498A4202D1013395
:405800003FF4FCAD354B4FF00008134003F5801950E163B9B8F1000F09D16AE7A3F580136FEA13594FF0FF386FEA095942E115B115EA090F02E0079B13EA080F00F03A814D
:40584000069B039A4046494653B1FFF76DFB02460B46DDE90801FDF745FC8046894629E1FFF762FB02460B46DDE90801FDF738FC002200238046894602F0CAFE00287FF425
:4058800048AF17E10299584602F0A5FA00224FF0804306460F4602F0CFFE00283FD0069B13B100260F4F10E0B8F1000F03D1C9F313033BB91AE0B8F1010F03D1B9F1000F09
:4058C0003FF427AF084F00260024064D3CE000BF02FCFFFFE2FBFFFFFFFF0F000000F07FFFFFEF7F0000F03F0000F0BF00229A4B3046394602F096FE40B90022974B30463E
:405900003946FDF7A1FD04460D4601E0069C934D05F1004314941593DDE9146714E08F4B002230463946FDF78FFD069B04460D4623B901F100430E900F9303E002460B461C
:40594000CDE90E23DDE90E6729F000431B0D1B050793079A824B9A422BD1DDE90823A9F1547940464946CDE90A2302F075F902460B4630463946FDF767FD42464B46FDF7DE
:40598000B1FB21F000431B0D764A1B05934280460CD9754B0B9A9A4203D10A9B01333FF42DADDFF8C4914FF0FF3872E001F1547939E0039B3BB3079BB3F1D46F23D85EA387
:4059C000D3E900232046294602F036FEB8B129462046FDF74BFF002808BF0120FDF7BEFC069B04460D4623B901F100431090119303E002460B46CDE91023DDE91067079ABD
:405A000007F1D6639F1ADDE9080102F025F902460B4630463946FDF717FDDDE90823FDF761FB80468946039B9BBB29F000431B0D079A1B059A424E462BD12946204602F0C5
:405A40002FFEFDF79BFC0B46024629462046FDF747FB069B04460D462BB9B8F1000F02D1C9F313067EB136A3D3E900232046294602F0D8FD88BB34A3D3E9002320462946F7
:405A800002F0EEFD04E032A3D3E9002302F0CAFD18BB1899504601F04FFE0499504601F04BFE0299504601F047FE5946504601F043FE74E5039B83B12C4B40460B9300233C
:405AC0000A934946DDE90A23FDF7BEFC8046894619B910B92223CAF800301899504601F02BFE0499504601F027FE0299504601F023FE0599504601F01FFE5946504601F01D
:405B00001BFE139B13B1179B139A13600C9B1BB1424609F1004307E042464B4604E000252A460121FFF747BB104619461DB0BDE8F08F00BFAFF300800000C0FFFFFFDF41D9
:405B40009535A094FFFFDF3F35E5AF350000E03F9535A094FFFFCF3F0000F03F0000E03F0000E07FFFFF9F7CFFFFEF7F00005039024B0A4601461868FFF7FAB97C81FF1F01
:405B8000174B2DE9F0411D680646AC6D0F46FCB9502001F069FDA8658460AB6D046044601C61DC60AB6D9C615C61AB6DDC629C62AB6D5C631C63AB6DDC639C63AB6D5C640D
:405BC0001C64AB6DDC649C64AB6D1C77AB6D5C62AA6D39463046BDE8F041012300F002B87C81FF1FF0B548B9106838B9F0BD17F8016B5EB1B542FAD12BB1204604460F4698
:405C000014F8015BF3E714600370F0BD4DB915602846F0BD17F8016BB54207D0002EF9D11C4623460F4613F8015BF3E715B10021217000E02B461360F0BD00002DE9F04720
:405C40000F4680463F48D0F800903D4615F8014B09EB0400407800F0080000F0FF0608B12F46F2E72D2C03D1BD1C7C78012603E02B2C04BF7C78BD1C13B1102B0AD15BE0AA
:405C8000302C57D1287800F0DF0058284DD16C7810230235002E14BF4FF0004C6FF0004CBCFBF3FA0027384603FB1ACC09EB040E9EF801E01EF0040F01D0303C0BE01EF0CD
:405CC000030E1BD0BEF1010F0CBF4FF0370E4FF0570ECEEB0404A34210DDB7F1FF3F0AD0504506D801D1644503DC03FB0040012701E04FF0FF3715F8014BD7E77B1C0CD18F
:405D0000002E4FF0220314BF4FF000406FF00040C8F800302AB9BDE8F08706B1404272B107B1691E1160BDE8F0873024002BB1D10823AFE70A23ADE7302CA3D0AAE7BDE841
:405D4000F08700BF8081FF1F2DE9F0470E4680463B48D0F80090354615F8014B09EB0400407800F0080000F0FF0708B12E46F2E72D2C03D1B51C7478012703E02B2C04BF05
:405D80007478B51C13B1102B0AD153E0302C4FD1287800F0DF00582845D16C78102302354FF0FF3CBCFBF3FC03FB0CFA00266FEA0A0A304609EB040E9EF801E01EF0040F7F
:405DC00001D0303C0BE01EF0030E1AD0BEF1010F0CBF4FF0370E4FF0570ECEEB0404A3420FDD002E08DB604506D801D1544503DC03FB0040012601E04FF0FF3615F8014B3D
:405E0000D8E7002E07DA2223C8F800304FF0FF302AB9BDE8F08707B1404272B106B1691E1160BDE8F0873024002BB9D10823B7E70A23B5E7302CABD0B2E7BDE8F08700BFE4
:405E40008081FF1F2DE9F0410C46496B04F1440399421AD14FF48061FDF796FF18B94FF0FF30BDE8F0814FF48063A36394F84630606380F8FF3394F8453000F2FD30437044
:405E800094F844300370206012E0A66B77003A4602F013F805460028E1D000EB0608014632464046FDF710FFC4F800806563A7630020BDE8F0810000F8B50F4614460646A7
:405EC00018B183690BB900F0EFFF224B9C4201D1746808E0204B9C4201D1B46803E01F4B9C4208BFF468A369A360A3891A0709D523693BB123682069FDB2181A6369984298
:405F00000FDB08E02146304600F03CF80028F1D04FF0FF30F8BD2146304600F05BFF0028F6D1A368013BA36023685A1C22601F706269431C934204D0A389DB0707D50A2D1C
:405F400005D12146304600F045FF0028E0D12846F8BD00BFB08F0000D08F0000F08F000038B5074C054608461146002222601A46FAF7DAF9431C02D1236803B12B6038BD79
:405F8000EC8DFF1F324B70B51D6806460C4625B1AB6913B9284600F087FF2E4B9C4201D16C6808E02C4B9C4201D1AC6803E02B4B9C4208BFEC68B4F90C309AB215071DD437
:405FC000D00602D4092232603AE0510712D5616B41B104F14403994202D03046FDF788FE00236363A38923F02403A3810023636023692360A38943F00803A38123694BB9C2
:40600000A38903F42073B3F5007F03D021463046FDF71EFEA28912F0010305D00023A36063695B42A36103E0920758BF6369A36023695BB9B4F90C3003F0800080B230B1B9
:4060400043F04003A3814FF0FF3070BD002070BD7C81FF1FB08F0000D08F0000F08F000038B5064C002305460846236002F040FB431C02D1236803B12B6038BDEC8DFF1F33
:406080002DE9F74F03690C6980469C427FDC013C01F114074FEA840E00F1140606EB0E0357F82450019356F824300135B3FBF5F507EB0E09C5B34FF0000A3846B446D34660
:4060C00050F8043B9AB205FB02A21B0C4FEA124A05FB03A392B2C2EB0B0BBCF800204FEA134A5A441FFA83FBDCF800308145CBEB134303EB224392B242EA03424FEA234B9C
:406100004CF8042BDCD256F80E306BB9019B043B9E421A4602D3C8F8104005E01268043B002AF8D1013CF3E7404601F01AFD00282BDB304601354FF0000E57F8042B036848
:4061400091B2C1EB0E0E120C99B27144C2EB134303EB214389B24FEA234EB94541EA034340F8043BE9D256F8242006EB840362B9043B9E421A4602D3C8F8104005E0126833
:40618000043B002AF8D1013CF3E7284600E0002003B0BDE8F08F00002DE9F04F456A95B08246219CCDE9022345B9102001F05CFACAF82400456085600560C560DAF8243013
:4061C000196859B15A68012393404A608B60504601F0B2FADAF8243000221A60039BA04A002BBDBF01232360039B0023BCBF23F000430393DDF80C80A8BF236028F000432D
:406200001B0D1B0593421DD142F20F73209A1360029B43B9934A944BC8F31300002814BF1846104600E09048229B002B00F04685C37813B100F1080300E0C31C229A13605A
:4062400000F03CBDDDE90245002200232046294602F0DEF9074658B1209A01231360229B002B00F01E8581481860013800F026BD12AB019313AB009322462B46504601F0D4
:406280005CFDC8F30A56049056B1C5F3130343F07F51204641F44011A6F2FF3611971DE0139B129E1E4406F23243202B0ADD029A06F21240C3F1400322FA00F008FA03F360
:4062C000184304E0C3F12000029B03FA00F0FDF745F80123A1F1F871013E11930022644BFCF7FEFE58A3D3E90023FDF7ADF858A3D3E90023FCF7F6FE044630460D46FDF7D3
:406300003DF855A3D3E90023FDF79EF802460B4620462946FCF7E6FE04460D4602F0C0F90022834600232046294602F07BF958B15846FDF723F802460B462046294602F0DB
:4063400067F908B90BF1FF3BBBF1160F0DD8DDE90223484901EBCB01D1E9000102F080F930B10BF1FF3B002300E00123109300E01090129B9E1B731E079343BFC3F1000806
:40638000002307934FF00008BBF1000F06DB079BCDF82CB05B440793002705E00023CBEB0808CBF100070B931E9B092B28D8052BC4BF043B1E931E9BC8BF0025A3F10203DD
:4063C000D8BF0125032B20D8DFE803F0060E0204012302E0012308E000230A931F9B002B1DDD9946059321E000230A931F9B0BEB030909F10103012B0593B8BF012315E0EF
:40640000012500231E930A9501E001230A934FF0FF390022CDF8149012231F9206E04FF001094B46CDF81490CDF87C90DAF8244000226260042101F114029A421CD862685E
:40644000490001326260F6E761436F63A787D23FB3C8608B288AC63FFB799F501344D33F0000F07FA18F0000AA8F00004B8E00000000F83F189000006168504601F027F963
:40648000DAF8243020601B680693059B0E2B00F25B81002D00F05881DDE90234BBF1000FCDE90E3430DD9F4A0BF00F034FEA2B1502EBC303E80618CBCDE908340CD5DDE935
:4064C0000E01994B05F00F05D3E90823FDF7E6F80324CDE9020100E00224934E6DB1E90708D5DDE90801D6E90023FCF7ADFFCDE9080101346D100836F0E7DDE90823DDE9A8
:406500000201FDF7CBF820E0CBF1000505B3DDE90E01844B05F00F0203EBC203D3E90023FCF792FFCDE902017F4E2D110023022455B1EA0705D5D6E90023FCF785FF0134FC
:4065400001236D100836F3E71BB1CDE9020100E00224109BE3B1DDE902560022734B2846314602F05FF898B1059B8BB1B9F1000F40F3E6800BF1FF330893314600226C4BDC
:406580002846FCF761FF0134CDE902014E4602E0059ECDF820B02046FCF7F0FEDDE90223FCF752FF634B0022FCF79CFDA1F1507304460C931D46D6B9DDE9020100225E4BE8
:4065C000FCF78EFD22460C9BCDE9020102F048F8002840F03F820C99224601F10043DDE9020102F01FF8002840F02B82A8E00A9A4C4B711E002A49D003EBC103D3E90023CB
:4066000000204E49FDF74AF822462B46FCF768FDCDE90C01069CDDE9020102F041F80546FCF7ACFE02460B46DDE90201FCF758FDDDE90C23303504F8015BCDE9020101F0F5
:40664000F1FF002840F01D83DDE9022300203749FCF746FDDDE90C2301F0E4FF002840F0D180069BE31AB3426ADADDE90C0100222F4BFCF7E9FE0022CDE90C01DDE9020131
:406680002B4BFCF7E1FECDE90201C4E703EBC1012246D1E900012B46FCF7D6FE069BCDE90C011D469C19DDE9020101F0F9FF0646FCF764FE02460B46DDE90201FCF710FDF2
:4066C000303605F8016BAC42CDE902014FF0000222D11A4BDDE90C01FCF704FD02460B46DDE9020101F0BCFF002840F08B80DDE90C2300201149FCF7F3FC02460B46DDE9A3
:40670000020101F08FFFD8B114F8013C621E302B40F0B7821446F7E7054BFCF795FECDE90201C0E718900000F09000000000F03F0000244000001C40000014400000E03FC9
:40674000DDE90E34CDE90234139B002B7CDBBBF10E0F79DCAB4B03EBCB03D3E900671F9B002B14DA059B002B11DC40F06C810022A54B30463946FCF767FEDDE9022301F01F
:4067800065FF059D2E46002840F05F8165E1069CDDE9028932463B4640464946FCF77EFF01F07EFF0546FCF7E9FD32463B46FCF74BFE0B46024649464046FCF791FC05F185
:4067C000300E069B04F801EBC3EB040E059B73452DD102460B46FCF785FC8046894602460B463046394601F01DFF78B942464B463046394601F00CFF002800F04482EB0774
:4068000004D440E2DDF820B000E01C4614F8012C631E392A07D1069A9A42F6D1069930220BF1010B0A701A7801321A702BE20022764BFCF709FE002200238046894601F0C8
:40684000E7FE0028A6D01EE20A9A002A2BD01E9A012A0ADC119A12B103F2334302E0129BC3F136033D46444613E0059B5D1EAF42BFBF0B9BEA1B9B180B93059BB6BF2F469E
:406880007D1B0025002BA7BF4446059BC3EB08040023079A01211A4450469844079201F028F8064602E03D4644460A9E5CB1079B002B08DDA342A8BF2346079AC3EB080890
:4068C000E41AD31A0793002F1DDD0A9BABB18DB131462A46504601F0A5F8049A01460646504601F00FF804990890504600F024FF089B04937A1B06D000E03A4604995046CB
:4069000001F090F804900121504600F0F2FF0B9B05465BB31A460146504601F083F81E9B0546012B18DC029B83B9039BC3F3130373B9039B23F000473F0D3F054FB1079B4C
:4069400008F1010801330793012702E0002700E0029F0B9B73B100E000272B6905EB8303186900F079FFC0F1200004E01E9B012BD9DD0B9F0120079B184410F01F0008D0C1
:40698000C0F12003042B02DDC0F11C0002E006D018461C30079B8044034404440793B8F1000F05DD42460499504601F089F80490079B002B05DD29461A46504601F080F85F
:4069C0000546109B23B32946049801F0CAF800281EDA00230A220499504600F0C4FE0A9B0BF1FF3B0490002B00F05F81314600230A22504600F0B7FEB9F1000F06463FDC2E
:406A00003BE000BF189000000000144000002440059B002B2BDC1E9B022B28DDDDF81490B9F1000F11D129464B460522504600F09AFE01460546049801F093F800280CDC4C
:406A400003E0354600E000252E461F9B069C6FEA030B09E03546DDF820B0069B069A5C1C312313700BF1010B05960026F7E00A9BDDF8149023B9069CB2E01E9B022BCFDC84
:406A8000002C05DD31462246504601F019F806469FB17168504600F01AFE0446326906F10C01023292000C30FDF70EF901222146504601F005F8059000E00596029B069FF8
:406AC00003F00103079329460498FFF7D9FA3146044600F13008049801F043F8059A02902946504601F059F8C36802463BB901460A90049801F035F80A9A034600E0012314
:406B0000114650460A9300F017FE0A9B53B91E9A42B9079A32B9B8F1390F2AD0029B002B1CDC1DE0029A002A04DB1BD11E9ACAB9079ABAB9002B13DD01220499504600F0ED
:406B4000BFFF2946049001F00CF8002803DC07D118F0010F04D0B8F1390F0AD004F131087C1C0CE0002B07F101040BDDB8F1390F03D139233B70013756E008F1010887F84C
:406B800000806CE0069B2746E31A4B4504F8018C3BD000230A220499504600F0E4FD059B04909E424FF00A024FF000033146504604D100F0D8FD0646059084E700F0D3FD33
:406BC000002306460A220599504600F0CCFD059079E700230A220499504600F0C4FD049029460498FFF74CFA069B00F1300804F8018BE31A4B45ECDB069B0596B9F1010F6E
:406C0000ACBF4B4401331F46002601220499504600F056FF2946049000F0A3FF002803DC15D118F0010F12D03C4614F8013C621E392B09D1069B934204D10BF1010B312354
:406C4000069A02E01446F0E70133137007E03C4614F8013C621E302B01D11446F8E72946504600F069FD059B6BB12EB19E4203D03146504600F060FD0599504600F05CFD92
:406C800001E0DDF820B00499504600F055FD0023209A23700BF101031360229B1BB11C6001E008480AE0069808E0B9F1000F3FF7E2AE1E9B022B7FF7DEAEB1E615B0BDE8E8
:406CC000F08F00BF4A8E00008A892DE9F041054610070C4659D44B68002B02DC0B6C002B17DDE66AAEB102F48052002392B22F682B600AB1606D15E0216A01232846B04760
:406D0000411C0FD12B686BB11D2B01D0162B03D12F600020BDE8F081A38943F04003A381BDE8F081A3895A0705D56368C01A636B0BB1236CC01A00230246E66A216A2846E5
:406D4000B047431CA38906D129681D2939D8204ACA40D60735D5002262602269D904226004D5421C01D12B6803B96065616B2F600029CED004F14403994202D02846FCF720
:406D8000B7FF00206063BDE8F0810F69002FC0D093070E680CBF4B690023C7EB06080F608B6002E00744C0EB0808B8F1000FB0DD43463A46216A2846A66AB0470028F1DCF6
:406DC000A38943F04003A3814FF0FF30BDE8F0810100402038B50B6905460C46DBB118B183690BB900F060F80C4B9C4201D16C6808E00B4B9C4201D1AC6803E0094B9C42AB
:406E000008BFEC68B4F90C302BB121462846BDE83840FFF759BF002038BD00BFB08F0000D08F0000F08F0000014900F0BBB800BFD56D000010B504460023036043608360B8
:406E400081814366C281036143618361194608225C30FCF744FF054B24626362044BA362044BE362044B236310BD00BF714E0000974E0000CF4E0000F34E000070B5682357
:406E80004D1E5D430E4605F17401FCF77DFF044640B1002180E842000C30A06005F16802FCF71DFF204670BD836910B5044633BB8364C3640365124B124A1B6882629842FC
:406EC00004BF0123836100F01FF86060204600F01BF8A060204600F017F80022E06004216068FFF7A7FF01220921A068FFF7A2FF02221221E068FFF79DFF0123A36110BD35
:406F0000E08D0000296E0000F8B51C4B07461E68B36913B93046FFF7C7FF4836B4687368013B04D4B4F90C507DB16834F8E733680BB13668F2E704213846FFF79FFF30607C
:406F40000028F6D10C233B60F8BD4FF6FF73E3810123A38165662560A560656025616561A5610822294604F15C00FCF7B8FE6563A563A564E5642046F8BD00BFE08D0000D8
:406F800038B5074C0023054608461146236001F0B7FB431C02D1236803B12B6038BD00BFEC8DFF1F2DE9F8438046894600F14804002694B1A5686768013F0CD4AB89012B27
:406FC00007D9B5F90E30013303D029464046C84706436835F0E72468EBE73046BDE8F883F0B506694B11B34200F1140527DA11F01F0105EB860605EB830201D1294616E050
:40700000141D55F823202B46C1F1200ECA40B44209D2276807FA0EF73A4343F8042B54F8042BCA40F3E71A6052B1043308E0B2420B4605D252F8043B41F8043BF7E72B4680
:407040005B1B9B10036103B94361F0BDA0F13003092B01D820380AE0A0F16103052B01D8473804E0A0F14103052B02D82738C0B27047002070472DE9F04F8BB08A46904696
:407080000693029000F0DAFA03684FF0000B18460393FDF741FF039B0190034413F8013C0793DAF8003002331F4613F8010B302802D10BF1010BF7E7FFF7C8FF0446E0B948
:4070C000019A0399384601F02DFA002834D1019BF85CFE18FFF7BAFF80B3334618781F46302803F10103F9D0FFF7B0FFB0FA80F534466D094FF0010B01E000252C463A4630
:40710000164630780132FFF7A1FF0028F8D1019A0399304601F006FA50B954B9019BF4182246164630780132FFF790FF0028F8D134B1A41BA40003E03E4600E00446012521
:407140003378502B01D0702B2AD173782B2B08D02D2B03D0711C4FF0000905E04FF0010901E04FF00009B11C0878FFF76FFF431EDBB2182B14D8A0F1100211F8010FFFF792
:4071800065FF431EDBB2182B04D80A2303FB0202103AF2E7B9F1000F00D05242144400E03146CAF800102DB1BBF1000F14BF002006207CE12946F31B013B072B02DD013163
:4071C0005B10FAE7029800F082FA4FF000090546CB46019B00F1140AC3F10103CDF810A00893B7422FD2731E0593079A16F8013C93420BD0BBF1200F16D1049BC3F80090BB
:4072000004334FF000090493CB460DE0059B089A13449F42EED81846019A0399099301F081F9099B68B1E5E716F8010CFFF70EFF00F00F0000FA0BF0059B49EA00090BF1EB
