:4000000000800020110000007D1000007D10000080B500AF024A034B1B68136001F062F8BC760040FA46004010B5054C237833B9044B13B10448AFF300800123237010BDA2
:400040008081FF1F00000000EC5C0000084B10B51BB108490848AFF300800848036803B910BD074B002BFBD0BDE81040184700BF000000008481FF1FEC5C0000C880FF1F02
:400080000000000080B582B000AF01F003FF03465B427B607B689AB21E4B1B689BB2D31A9AB21D4B1A801B4A7B6813601B4B1B681B4A128811461B4A32F811209B1A174A03
:4000C0001360174B1B881A46134B1988154B23F81210114B1B881A46104B1B6813440F4A13600F4B1B885A1C0F4B1340002B03DA013B63F00F0301339AB2094B1A80074BA3
:400100001B681B09094A136002F01AFA00BF0837BD4680BDC081FF1FC481FF1FC881FF1FCC81FF1F9C81FF1F0F000080BC81FF1F80B500AF034802F0B5F901F057FE00BF81
:4001400080BD00BF8500000090B585B000AF244B1B68184602F06EFB1BA3D3E9002302F009FD03460C461A4623464FF000001D4902F000FD03460C46C7E902344FF00002DB
:40018000194BD7E9020102F0F5FC03460C46184621460FA3D3E9002302F0C2FB03460C46184621460CA3D3E9002302F007FA03460C46C7E90034D7E9000102F0C3FD034679
:4001C00018461437BD4690BD00000000006AF8408A8EE4F21FD2F23FF853E3A59BC4C03FBC81FF1F0000F03F00003740B0B588B002AF0346B9607A60FB73786803F020FF38
:4002000003463B6100237B6105E07B6800221A707B6901337B617A693B699A42F5DBFB7B002B0FD0FB7B0D2B0CD8FD7BB86802F023FB03460C46CDE900342A460449786863
:4002400003F088FE7B6818461837BD46B0BD00BFB45D000080B483B000AF174B1B78FB71FB7903F01E03002B0CD097F9073003F01E035AB2114B1B785BB213435BB2DAB25D
:400280000E4B1A70FB7903F02003002B09D00C4B1B78BB71094B1B78002B02D1094ABB791370FB7903F02003002BD6D100BF0C37BD4680BC704700BF6A640040CE81FF1F3A
:4002C000496500404864004080B500AF00F09EFF024801F017F800BF80BD00BF5502000080B586B000AFF860B9607A6000237B6109E0BB685A1CBA601B78184600F0E8FF8F
:400300007B6901337B617A697B689A42F1DB7B6818461837BD4680BD90B593B000AF62B6FFF706FFFFF7D0FF00F060F900F00EFA00F0EAF8384800F0B3FB384803F0F2FDE9
:4003400000F010F903460C46334AC2E9003400F03FF903460C46304AC2E9023400F0F8F80346184602F088FA03460C462A4AC2E9043400F003F903460C46274AC2E90634A5
:4003800000F00AF903460C46234AC2E90834224A4FF000034FF00004C2E90A3400F00AF903460C461C4AC2E90C341B4A4FF000034FF00004C2E90E34FFF7C6FE034618466A
:4003C00002F05AFA03460C46134AC2E91034124A4FF000034FF00004C2E912340E4A4FF000034FF00004C2E914340B4A4FF000034FF00004C2E91634074A4FF000034FF08D
:400400000004C2E91834044A4FF000034FF00004C2E91A3494E700BF208BFF1F885E000090B583B000AF00F07DF80346184602F0E7FD0346FB8001F0F1F92D4B1B682D4AF2
:40044000128811462C4A32F811209B1A284A1360284B1B881946284AFB8822F81130FA88234B1B681344224A1360224B1B885A1C224B1340002B05DA013B6FEA83536FEA9E
:40048000935301339AB21B4B1A80194B1B689B0A9AB21B4B1A801A4B1B88184602F0DAF90FA3D3E9002302F03BFA03460C46184621460DA3D3E9002302F080F803460C4627
:4004C0001846214602F03EFC02460E4B1A6001F05BFA00BF0C37BD4690BD00BFAFF300802F6EA301BC0572BF713D0AD7A3702A40D889FF1FDC89FF1FD881FF1FFF0300803D
:40050000D481FF1FD081FF1F80B500AF00F0CEFF01F084F9024801F0E9F900BF80BD00BF2104000080B582B000AF01F099F8002001F0A6F801F0C4F80346FB80FB88184634
:4005400002F006FD034618460837BD4680BD00BF80B400AF024B1B681846BD4680BC7047D081FF1F90B400AF034B18CB18462146BD4690BC704700BFE089FF1F90B400AF03
:40058000044B03F10804D4E9003418462146BD4690BC7047E089FF1F90B400AF044B03F11004D4E9003418462146BD4690BC7047E089FF1F90B400AF044B03F11804D4E90D
:4005C000003418462146BD4690BC7047E089FF1F90B400AF044B03F12004D4E9003418462146BD4690BC7047E089FF1F80B500AF094801F05BFB094801F068FC084801F075
:40060000F7FE01F047FA01F0E9FA01F08DFE054B00221A7000BF80BD910600003907000051060000088AFF1F80B582B000AF0346FB71FB79184601F093FB012001F088FABD
:40064000012001F09DFC00BF0837BD4680BD00BF80B500AF0C4B1B781846FFF7E5FF0A4B1B785A1C094B83FB02135910D317C91A0B469B000B44D11ACAB2034B1A7001F0E6
:4006800005FF00BF80BD00BF088AFF1F67666666B0B582B000AF244B1B78013BFB71FB79FF2B01D10423FB71FA79204BA3FB021399080B469B000B44D31AFB7101F044FB49
:4006C00001F0CAFA0346C3F580333B60FD79386802F0B0F812A3D3E9002302F04BFA03460C46184621464FF00002114B02F018F903460C46184621464FF000024FF08043D8
:4007000002F038FA03460C460A49EA000A44C2E9003401F0BDFA00BF0837BD46B0BD00BF0000000080842E41088AFF1FCDCCCCCC00407540E089FF1F80B500AF01F014FC06
:40074000002001F01DFC00BF80BD00BF80B500AF044801F0BFFC01F017FD01F057FC00BF80BD00BF490A000084B090B5C5B000AF07F5907484E80F00D7F8900203F060FC99
:400780000346C7F808310023C7F80C310BE0D7F80C31D7F89022134400221A70D7F80C310133C7F80C31D7F80C21D7F808319A42EDDBD7F8903224221A7007F5907318CB37
:4007C0001846214602F0BEFA01463B1D1A460520FFF70CFD03461946D7F8900203F021FCD7F8900203F02CFC0246D7F8903213442C221A7007F5947318CB1846214602F02D
:40080000A1FA01463B1D1A460620FFF7EFFC03461946D7F8900203F004FCD7F8900203F00FFC0246D7F8903213442C221A7007F5987318CB1846214602F084FA01463B1DF6
:400840001A460720FFF7D2FC03461946D7F8900203F0E7FBD7F8900203F0F2FB0246D7F8903213442C221A7007F59C7318CB1846214602F067FA01463B1D1A460820FFF7E3
:40088000B5FC03461946D7F8900203F0CAFBD7F8900203F0D5FB0246D7F8903213442C221A7007F5A07318CB1846214602F04AFA01463B1D1A460920FFF798FC0346194653
:4008C000D7F8900203F0ADFBD7F8900203F0B8FB0246D7F8903213442C221A7007F5A47318CB1846214602F02DFA01463B1D1A460A20FFF77BFC03461946D7F8900203F087
:4009000090FBD7F8900203F09BFB0246D7F8903213442C221A7007F5A87318CB1846214602F010FA01463B1D1A460B20FFF75EFC03461946D7F8900203F073FBD7F890023A
:4009400003F07EFB0246D7F8903213442C221A7007F5AC7318CB1846214602F0F3F901463B1D1A460C20FFF741FC03461946D7F8900203F056FBD7F8900203F061FB0246BF
:40098000D7F8903213442C221A7007F5B07318CB1846214602F0D6F901463B1D1A460D20FFF724FC03461946D7F8900203F039FBD7F890320133184600F02CF8C7F8040182
:4009C000D7F8900203F03CFB0246D7F8903213442A221A703B1DD7F804210C49184603F0B9FA3B1D1946D7F8900203F01AFBD7F89012074803F024FAD7F89032184607F5E5
:400A00008A77BD46BDE8904004B07047605F0000685F000080B485B000AF78600023FB6007E07B685A1C7A601B781A46FB685340FB607B681B78002BF3D1FB68184614370F
:400A4000BD4680BC704700BF90B5DBB05AAF01F08FFB0B4C0B4B5893684604F110034FF4B072194602F078FB94E80F00FFF77CFE044800F009F800BF0437BD4690BD00BFB5
:400A8000208BFF1F0C8AFF1F80B582B000AF7860786801F0D7FB00BF0837BD4680BD00BFB0B483B000AF78607A684FF000034FF00004C2E900347A684FF000034FF0000460
:400AC000C2E902347A684FF000034FF00004C2E904347A684FF000034FF00004C2E906347A684FF000034FF00004C2E908347A684FF000034FF00004C2E90A347A684FF0C0
:400B000000034FF00004C2E90C347A684FF000034FF00004C2E90E347A684FF000034FF00004C2E910347A684FF000034FF00004C2E912347A684FF000034FF00004C2E970
:400B400014347A684FF000034FF00004C2E916347A684FF000034FF00004C2E918347A684FF000034FF00004C2E91A347B687033074A1D4614460FCC28606960AA60EB60FE
:400B800023782B7400BF0C37BD46B0BC704700BF3060000080B582B000AF786039603A680021786802F0E3FA00BF0837BD4680BD80B584B000AFF860B9607A607A68B968E7
:400BC000F86802F0C9FA00BF1037BD4680BD00BF80B483B000AF0346FB71FEE780B487B000AF7860396000233B6100237B6127E07B699B007A6813441B68BB60BB68FB73F4
:400C0000BB6823F0FF03BB6014E03B695B003A6813441B781A46BB68134419463B695B003A6813445B780B703B6901333B61FB7B013BFB73FB7B002BE7D17B6901337B6182
:400C40007B69292BD4D900BF1C37BD4680BC704780B582B000AF494B17221A80484B18221A70484B19221A80474B18221A70474BEF221A80464B18221A70464BEF221A8027
:400C8000454B18221A70454B4FF49C721A80444B18221A70082243494348FFF789FF434B06221A70424B52221A70424B424A1278D2B21A70414B4FF4E1621A80404B41F26D
:400CC00051221A800023FB7019237B6014E0FB785B00DAB23B4B1B78DBB203F00103DBB21343DBB203F00303FB704FF4F07001F033FC7B68013B7B607B68002B02D0FB7873
:400D0000032BE4D17B68002B02D10320FFF760FF2D4B4FF480721A802B4B07221A702B4B00221A702A4B48221A70274B00221A70284B00221A70284B02221A70274B042286
:400D40001A70274A264B1B78DBB243F01F03DBB21370244A234B1B78DBB243F00203DBB21370214A204B1B78DBB263F07F03DBB2137000BF0837BD4680BD00BF8040004066
:400D8000824000408440004086400040884000408A4000408C4000408E4000409040004092400040680E0048004100400043004000420040A14600400F0100492242004071
:400DC000204200402542004004400040064000400840004009400040014000400B400040A2430040A1430040A043004080B582B000AF1F4B1B78FB711E4B1B78BB711E4B07
:400E00001B787B711D4AFB7903F00703DBB213701B4AFB791B09DBB21370164ABB7943F00303DBB21370144A7B7943F00303DBB21370144B80221A70134B40221A70134B93
:400E400040221A70124B08221A70124B20221A700A2000F0CBFA084A7B791370054ABB7913700D4B44221A7000BF0837BD4680BDCF010049F8460040F94600406E580040FC
:400E80006F5800401D510040095900400B590040285B00402B5B00407658004080B586B000AF72B6574A574B1B78DBB243F00403DBB213700023FB7513E0FA7D13465B0000
:400EC00013445B00504A13443B613B691A683B699B889BB219461046FFF75CFEFB7D0133FB75FB7D082BE8D90023FB751CE0FA7D13469B0013445B00444A1344FB60FB689D
:400F00001B68BB60FB685B687B60FB681A7A5B7A1B0213437B807B881A467968B868FFF747FEFB7D0133FB75FB7D022BDFD938494FF09040FFF752FE364B374A1A60374BEC
:400F4000374A1A60374B384A1A60384A374B1B78DBB243F00203DBB21370354A344B1B78DBB243F00203DBB21370324A314B1B78DBB243F04003DBB213702F4A2E4B1B7803
:400F8000DBB243F01003DBB2137008222B492C48FFF70EFE0A222B492B48FFF709FE08222A492B48FFF704FE0A222A492A48FFF7FFFD082229492A48FFF7FAFD0822294988
:400FC0002948FFF7F5FD294A284B1B78DBB243F00803DBB21370264B61221A70FFF738FE234B81221A70234B01221A70FFF7FEFE0E2210492048FFF7DBFD00BF1837BD4622
:4010000080BD00BFE84600403862000070620000A8000048D80C0140040404C45816014004040444D81A0140040404840350014013500140A0430040C2430040300E00480D
:4010400002510040380E0048C0510040440E0048F25100404C0E004810510040580E004822510040600E004832510040224300400048004004000840B043004080B500AF34
:4010800001F0DEFF03461B680C2B00D1FEE7FEE780B584B000AF7860104B1A687B6813441A460F4BD31AB3F5407F09DC0B4B1B68FB600A4B1A687B681344084A136007E0D9
:4010C00001F0BEFF02460C2313604FF0FF33FB60FB6818461037BD4680BD00BFCC80FF1FA08CFF1F80B586B000AF224B7B61224B3B61204B7B6135E03B691B68FB603B69E3
:401100005B68BB603B699B683B6000237B600CE0FB681A68BB681A60BB680433BB60FB680433FB607B6804337B607A683B689A42EED13B69DB683B6000237B6008E0BB6819
:4011400000221A60BB680433BB607B6804337B607A683B689A42F2D13B6910333B617B69013B7B617B69002BC6D101F06FFFFFF7D3F8FEE7010000007464000080B582B0DB
:4011800000AF184B184A1A60184A184B1B6843F40073136000237B600FE07B68032B04D8134A7B6852F8233000E0124B12497A6841F822307B6801337B607B682F2BECD92C
:4011C0000E4B1B78DAB20E4B1A700E4B0A4A1A60FFF764FE0C4B00221A6000BF0837BD4680BD00BF0CED00E00004FA0514ED00E0000000007D1000000080FF1FBC760040CB
:40120000C480FF1F08ED00E0C080FF1F80B500AF064B1B78002B04D100F00AF8034B01221A7000F025F800BF80BD00BF0B8BFF1F80B400AF094B72221A70094B3E221A7055
:40124000084B06221A70084B47221A70074B00221A7000BFBD4680BC704700BF896500408A64004027640040376400408B64004080B582B000AF01F077F90346FB71114AF9
:40128000104B1B78DBB243F02003DBB213700E4A0D4B1B78DBB243F01003DBB213700B4A0A4B1B78DBB243F01003DBB2137000F077F8FB79184601F05BF900BF0837BD4690
:4012C00080BD00BF996500409A6400409B64004080B483B000AF0346FB7100BF074B1B78DBB203F00403002BF8D1054AFB79137000BF0C37BD4680BC704700BF6B64004041
:401300004864004080B582B000AF786000F03CF8786800F009F8072000F018F800F028F800BF0837BD4680BD80B485B000AF7860054B1B68FB60FB6858337A681A6000BF42
:401340001437BD4680BC704708ED00E080B483B000AF0346FB71054AFB795B01DBB2137000BF0C37BD4680BC704700BF06E400E080B400AF034B40221A6000BFBD4680BCD1
:40138000704700BF00E100E080B400AF034B40221A6000BFBD4680BC704700BF80E100E080B400AF094A094B1B78DBB243F00203DBB21370064A064B1B78DBB243F0020349
:4013C000DBB2137000BFBD4680BC7047A2430040B243004080B483B000AF0346FB7101BE00BF0C37BD4680BC704700BF80B582B000AF0346FB80FB88054A127802FB03F364
:40140000184601F0A9F800BF0837BD4680BD00BFD880FF1F80B584B000AF03463960FB710F4B1B68FB60FB791F2B02D90020FFF7D1FFFB7903F01F0310339B00FA6813440C
:401440001B68BB60FB7903F01F0310339B00FA6813443A681A60BB6818461037BD4680BD08ED00E080B582B000AF03460A46FB711346BB71BB79072B02D90020FFF7AAFF15
:40148000FB791F2B02D90020FFF7A4FFFB7903F01F0303F1604303F56443BA795201D2B21A7000BF0837BD4680BD00BF80B500AF064B1B78002B04D100F00AF8034B01225F
:4014C0001A7000F029F800BF80BD00BF0D8BFF1F80B500AF102000F051F907210520FFF7C1FF0A490520FFF795FF094A084B1B78DBB243F00603DBB213700C2000F086F8E1
:40150000044B00221A8000BF80BD00BF7117000009590040968CFF1F80B582B000AF01F023F80346FB712E4A2D4B1B78DBB243F00203DBB213702B4A2A4B1B78DBB243F00F
:401540000203DBB21370284A274B1B78DBB243F00203DBB21370254A244B1B78DBB243F00203DBB21370224B1B78BB71BB7943F00203BB71BB7943F00103BB711C4ABB79CF
:4015800013701C4B18221A701B4A1B4B1B78DBB243F04003DBB21370174A174B1B78DBB223F00303DBB21370144BC8221A70144B02221A70134A134B1B78DBB243F0080307
:4015C000DBB213700A20FFF711FF0F4B20221A60FB79184600F0CCFF00BF0837BD4680BDAB430040BB430040A1430040B14300400B5900400E5900400D5900400859004074
:40160000164600402F5B004080E200E080B584B000AF0346FB71FB790A2B07D00C2B02D0082B06D008E0C223FB730BE08223FB7308E04223FB7305E0C223FB730020FFF761
:40164000C9FE00BF054AFB7B1370FB79184600F04FF800BF1037BD4680BD00BF0A59004080B400AF054A054B1B78DBB243F00103DBB2137000BFBD4680BC704708590040AC
:4016800080B584B000AF0346FB710C4B1B78DBB203F00103FB73FB7B012B02D0FB79002BF3D0FB7B012B04D10120FFF79FFE034B1B78FB7B18461037BD4680BD09590040A2
:4016C00080B483B000AF084B1B88FB80074B1B881BB29BB2FA88D31A9BB21BB218460C37BD4680BC704700BFA25B0040988CFF1F80B584B000AF0346FB71FB790A2B08D0A8
:401700000C2B02D0082B08D00BE04FF48053FB600DE04FF48063FB6009E04FF48073FB6005E00023FB600020FFF754FE00BF0C4B00221A80FB6842F2107202FB03F303F6AF
:40174000C413084A82FB0312D212DB17D31A064A1360064B00221A8000BF1037BD4680BD948CFF1FAD8BDB68908CFF1F988CFF1F80B400AF00BFBD4680BC704780B483B0A1
:4017800000AF0346FB710949084B1B78DBB25AB297F9073023F007035BB213435BB2DBB20B7000BF0C37BD4680BC70470641004080B582B000AF45F6BF5000F05DF845F639
:4017C000BF5000F075F800F0CFFE0346FB710A4A094B1B78DBB243F01003DBB21370FB79184600F0C5FE00F073F8002000F028F800BF0837BD4680BD9B65004080B400AF7C
:40180000054A054B1B78DBB263F07F03DBB2137000BFBD4680BC70477B65004080B500AF064B1B78002B04D1FFF7C2FF034B01221A70FFF7E3FF00BF80BD00BF0E8BFF1F6B
:4018400080B483B000AF0346FB71044AFB79137000BF0C37BD4680BC704700BF8B65004080B400AF034B1B78DBB21846BD4680BC704700BF6B65004080B483B000AF03469E
:40188000FB80044AFB88138000BF0C37BD4680BC704700BF546A004080B400AF034B1B889BB21846BD4680BC704700BF946A004080B483B000AF0346FB80044AFB881380E4
:4018C00000BF0C37BD4680BC704700BF146A004080B500AF01E0FFF7DFFFFFF7C1FF034603F00803002BF6D100BF80BD80B582B000AF786000F03CF8786800F009F80120EB
:4019000000F018F800F028F800BF0837BD4680BD80B485B000AF7860054B1B68FB60FB685C337A681A6000BF1437BD4680BC704708ED00E080B483B000AF0346FB71054AFE
:40194000FB795B01DBB2137000BF0C37BD4680BC704700BF07E400E080B400AF034B80221A6000BFBD4680BC704700BF00E100E080B400AF034B80221A6000BFBD4680BC38
:40198000704700BF80E100E080B400AF034B80221A6000BFBD4680BC704700BF80E200E080B500AF254A254B1B78DBB203F00103DBB21370224A224B1B78DBB223F0030371
:4019C000DBB213701D4A1D4B1B78DBB243F00403DBB213701B4A1B4B1B78DBB243F00103DBB21370184A184B1B78DBB223F03003DBB21370144A144B1B78DBB243F03003EE
:401A0000DBB21370104A104B1B78DBB223F00F03DBB213700C4A0C4B1B78DBB243F00F03DBB21370052000F083F8052000F054F8002000F041F800BF80BD00BF004F0040E6
:401A4000024F0040014F00400B4F004080B400AF0D4A0D4B1B78DBB243F00103DBB213700A4A0A4B1B78DBB243F00103DBB21370074A074B1B78DBB243F00103DBB2137098
:401A800000BFBD4680BC7047A3430040B3430040004F004080B500AF064B1B78002B04D1FFF77EFF034B01221A70FFF7CFFF00BF80BD00BF0F8BFF1F80B483B000AF0346BA
:401AC000FB71044AFB79137000BF0C37BD4680BC704700BF034F004080B582B000AF0346FB71114B1B78DBB203F00103002B02D00020FFF76FFC0C4A0B4B1B78DBB243F031
:401B00000103DBB21370094BFA7992B21A80064A054B1B78DBB223F00103DBB2137000BF0837BD4680BD00BFA3430040064F004080B483B000AF0346FB71044BFA7992B27C
:401B40001A8000BF0C37BD4680BC7047044F004080B483B000AF0346FB71044AFB79137000BF0C37BD4680BC704700BF7664004080B582B000AF4FF6FF7000F05DF84FF60B
:401B8000FF7000F075F800F0EFFC0346FB710A4A094B1B78DBB243F01003DBB21370FB79184600F0E5FC00F073F8002000F028F800BF0837BD4680BD9564004080B400AF23
:401BC000054A054B1B78DBB263F07F03DBB2137000BFBD4680BC70477765004080B500AF064B1B78002B04D1FFF7C2FF034B01221A70FFF7E3FF00BF80BD00BF108BFF1FAA
:401C000080B483B000AF0346FB71044AFB79137000BF0C37BD4680BC704700BF8564004080B400AF034B1B78DBB21846BD4680BC704700BF6564004080B483B000AF0346E8
:401C4000FB80044AFB88138000BF0C37BD4680BC704700BF4868004080B400AF034B1B889BB21846BD4680BC704700BF8868004080B483B000AF0346FB80044AFB8813803C
:401C800000BF0C37BD4680BC704700BF0868004080B500AF01E0FFF7DFFFFFF7C1FF034603F00803002BF6D100BF80BD80B582B000AF786000F03CF8786800F009F807202F
:401CC00000F018F800F028F800BF0837BD4680BD80B485B000AF7860054B1B68FB60FB6844337A681A6000BF1437BD4680BC704708ED00E080B483B000AF0346FB71054A53
:401D0000FB795B01DBB2137000BF0C37BD4680BC704700BF01E400E080B400AF034B02221A6000BFBD4680BC704700BF00E100E080B400AF034B02221A6000BFBD4680BC76
:401D4000704700BF80E100E080B400AF034B02221A6000BFBD4680BC704700BF80E200E080B483B000AF0346FB71044AFB79137000BF0C37BD4680BC704700BF7564004047
:401D800080B582B000AF4FF0FF3000F05DF84FF0FF3000F071F800F0E7FB0346FB710A4A094B1B78DBB243F01003DBB21370FB79184600F0DDFB00F07BF8002000F028F8C1
:401DC00000BF0837BD4680BD9364004080B400AF054A054B1B78DBB263F07F03DBB2137000BFBD4680BC70477064004080B500AF064B1B78002B04D1FFF7C2FF034B01222E
:401E00001A70FFF7E3FF00BF80BD00BF118BFF1F80B483B000AF0346FB71044AFB79137000BF0C37BD4680BC704700BF8364004080B400AF034B1B78DBB21846BD4680BCEF
:401E4000704700BF6364004080B483B000AF7860034A7B68136000BF0C37BD4680BC70472064004080B400AF024B1B681846BD4680BC70474064004080B483B000AF7860BF
:401E8000034A7B68136000BF0C37BD4680BC70470064004080B400AF034B1B78034B1B681846BD4680BC7047006400404064004080B500AF01E0FFF7D5FFFFF7B9FF0346EC
:401EC00003F00803002BF6D100BF80BD80B582B000AF786000F03CF8786800F009F8072000F018F800F028F800BF0837BD4680BD80B485B000AF7860054B1B68FB60FB681D
:401F00004C337A681A6000BF1437BD4680BC704708ED00E080B483B000AF0346FB71054AFB795B01DBB2137000BF0C37BD4680BC704700BF03E400E080B400AF034B08221E
:401F40001A6000BFBD4680BC704700BF00E100E080B400AF034B08221A6000BFBD4680BC704700BF80E100E080B400AF034B08221A6000BFBD4680BC704700BF80E200E09D
:401F800080B483B000AF0346FB71044AFB79137000BF0C37BD4680BC704700BF7364004080B582B000AF44F61F6000F05DF844F61F6000F073F800F0D7FA0346FB710A4A51
:401FC000094B1B78DBB243F01003DBB21370FB79184600F0CDFA00F06FF8002000F028F800BF0837BD4680BD9665004080B400AF054A054B1B78DBB263F07F03DBB2137007
:4020000000BFBD4680BC70477665004080B500AF064B1B78002B04D1FFF7C2FF034B01221A70FFF7E3FF00BF80BD00BF128BFF1F80B483B000AF0346FB71044AFB791370F8
:4020400000BF0C37BD4680BC704700BF8665004080B400AF034B1B78DBB21846BD4680BC704700BF6665004080B582B000AF78607968034800F080FA00BF0837BD4680BD4D
:402080002465004080B400AF034B1B6823F07F431846BD4680BC70474465004080B582B000AF78607968034800F066FA00BF0837BD4680BD0465004080B500AF01E0FFF785
:4020C000E1FFFFF7C5FF034603F00803002BF6D100BF80BD80B582B000AF786000F03CF8786800F009F8072000F018F800F028F800BF0837BD4680BD80B485B000AF7860C9
:40210000054B1B68FB60FB6850337A681A6000BF1437BD4680BC704708ED00E080B483B000AF0346FB71054AFB795B01DBB2137000BF0C37BD4680BC704700BF04E400E0E1
:4021400080B400AF034B10221A6000BFBD4680BC704700BF00E100E080B400AF034B10221A6000BFBD4680BC704700BF80E100E080B400AF034B10221A6000BFBD4680BCE0
:40218000704700BF80E200E080B500AF064B1B78002B04D100F00AF8034B01221A7000F01BF800BF80BD00BF138BFF1F80B400AF064B06221A70064B47221A70054B00229C
:4021C0001A7000BFBD4680BC704700BF26640040366400408F64004080B582B000AF00F0C3F90346FB71094A084B1B78DBB243F01003DBB2137000F047F8FB79184600F086
:40220000B7F900BF0837BD4680BD00BF9F64004080B483B000AF0346FB7100BF074B1B78DBB203F00403002BF8D1054AFB79137000BF0C37BD4680BC704700BF6F640040B4
:402240004F64004080B584B000AF78600023FB810C4B1B78002B10D009E0FB897A6813441B781846FFF7D4FFFB890133FB81FB897A6813441B78002BEFD100BF1037BD460F
:4022800080BD00BF138BFF1F80B400AF094A094B1B78DBB243F01003DBB21370064A064B1B78DBB243F01003DBB2137000BFBD4680BC7047A2430040B243004080B582B0D9
:4022C00000AF44F61F6000F05DF844F61F6000F073F800F049F90346FB710A4A094B1B78DBB243F01003DBB21370FB79184600F03FF900F06FF8002000F028F800BF083799
:40230000BD4680BD9D64004080B400AF054A054B1B78DBB263F07F03DBB2137000BFBD4680BC70477D64004080B500AF064B1B78002B04D1FFF7C2FF034B01221A70FFF74F
:40234000E3FF00BF80BD00BF158BFF1F80B483B000AF0346FB71044AFB79137000BF0C37BD4680BC704700BF8D64004080B400AF034B1B78DBB21846BD4680BC704700BFA6
:402380006D64004080B582B000AF78607968034800F0F2F800BF0837BD4680BD2B64004080B400AF034B1B6823F07F431846BD4680BC70474B64004080B582B000AF786051
:4023C0007968034800F0D8F800BF0837BD4680BD0B64004080B500AF01E0FFF7E1FFFFF7C5FF034603F00803002BF6D100BF80BD80B582B000AF786000F03CF8786800F098
:4024000009F8072000F018F800F028F800BF0837BD4680BD80B485B000AF7860054B1B68FB60FB6848337A681A6000BF1437BD4680BC704708ED00E080B483B000AF03469A
:40244000FB71054AFB795B01DBB2137000BF0C37BD4680BC704700BF02E400E080B400AF034B04221A6000BFBD4680BC704700BF00E100E080B400AF034B04221A6000BFAE
:40248000BD4680BC704700BF80E100E080B400AF034B04221A6000BFBD4680BC704700BF80E200E080B582B000AF786000F03CF8786800F009F8002000F018F800F028F88C
:4024C00000BF0837BD4680BD80B485B000AF7860054B1B68FB60FB6840337A681A6000BF1437BD4680BC704708ED00E080B483B000AF0346FB71054AFB795B01DBB213707F
:4025000000BF0C37BD4680BC704700BF00E400E080B400AF034B01221A6000BFBD4680BC704700BF00E100E080B400AF034B01221A6000BFBD4680BC704700BF80E100E09A
:4025400080B400AF034B01221A6000BFBD4680BC704700BF80E200E00230800803D000BF01380046FCD17047EFF3108072B6704780F31088704700BF80B485B000AF7860C6
:4025800039607B68FB603B68DAB2FB681A70FB6801333A68120AD2B21A70FB6802333A68120CD2B21A7000BF1437BD4680BC704781F0004102E000BF83F0004330B54FEA38
:4025C00041044FEA430594EA050F08BF90EA020F1FBF54EA000C55EA020C7FEA645C7FEA655C00F0E2804FEA5454D4EB5555B8BF6D420CDD2C4480EA020281EA030382EA03
:40260000000083EA010180EA020281EA0303362D88BF30BD11F0004F4FEA01314FF4801C4CEA113102D0404261EB410113F0004F4FEA03334CEA133302D0524263EB43038A
:4026400094EA050F00F0A780A4F10104D5F1200E0DDB02FA0EFC22FA05F2801841F1000103FA0EF2801843FA05F359410EE0A5F120050EF1200E012A03FA0EFC28BF4CF0C8
:40268000020C43FA05F3C01851EBE37101F0004507D54FF0000EDCF1000C7EEB00006EEB0101B1F5801F1BD3B1F5001F0CD349085FEA30004FEA3C0C04F101044FEA445288
:4026C00012F5800F80F09A80BCF1004F08BF5FEA500C50F1000041EB045141EA050130BD5FEA4C0C404141EB010111F4801FA4F10104E9D191F0000F04BF01460020B1FAC5
:4027000081F308BF2033A3F10B03B3F120020CDA0C3208DD02F1140CC2F10C0201FA0CF021FA02F10CE002F11402D8BFC2F1200C01FA02F120FA0CFCDCBF41EA0C019040A3
:40274000E41AA2BF01EB0451294330BD6FEA04041F3C1CDA0C340EDC04F11404C4F1200220FA04F001FA02F340EA030021FA04F345EA030130BDC4F10C04C4F1200220FA8D
:4027800002F001FA04F340EA0300294630BD21FA04F0294630BD94F0000F83F4801306BF81F480110134013D4EE77FEA645C18BF7FEA655C29D094EA050F08BF90EA020F2A
:4027C00005D054EA000C04BF1946104630BD91EA030F1EBF0021002030BD5FEA545C05D14000494128BF41F0004130BD14F580043CBF01F5801130BD01F0004545F0FE4138
:4028000041F470014FF0000030BD7FEA645C1ABF194610467FEA655C1CBF0B46024650EA013406BF52EA033591EA030F41F4002130BD00BF90F0000F04BF0021704730B52B
:402840004FF4806404F132044FF000054FF0000150E700BF90F0000F04BF0021704730B54FF4806404F1320410F0004548BF40424FF000013EE700BF42004FEAE2014FEAA2
:4028800031014FEA02701FBF12F07F4393F07F4F81F06051704792F0000F14BF93F07F4F704730B54FF4607401F0004521F0004120E700BF50EA010208BF704730B54FF0DA
:4028C00000050AE050EA010208BF704730B511F0004502D5404261EB41014FF4806404F132045FEA915C3FF4DCAE4FF003025FEADC0C18BF03325FEADC0C18BF033202EB2C
:40290000DC02C2F1200300FA03FC20FA02F001FA03FE40EA0E0021FA02F11444C1E600BF70B54FF0FF0C4CF4E06C1CEA11541DBF1CEA135594EA0C0F95EA0C0F00F0DEF835
:402940002C4481EA030621EA4C5123EA4C5350EA013518BF52EA033541F4801143F4801338D0A0FB02CE4FF00005E1FB02E506F00042E0FB03E54FF00006E1FB03569CF059
:40298000000F18BF4EF0010EA4F1FF04B6F5007F64F5407404D25FEA4E0E6D4146EB060642EAC62141EA55514FEAC52040EA5E504FEACE2EB4F1FD0C88BFBCF5E06F1ED8B5
:4029C000BEF1004F08BF5FEA500E50F1000041EB045170BD06F0004646EA010140EA020081EA0301B4EB5C04C2BFD4EB0C0541EA045170BD41F480114FF0000E013C00F333
:402A0000AB8014F1360FDEBF002001F0004170BDC4F10004203C35DA0C341BDC04F11404C4F1200500FA05F320FA04F001FA05F240EA020001F0004221F0004110EBD370E2
:402A400021FA04F642EB06015EEA430E08BF20EAD37070BDC4F10C04C4F1200500FA04F320FA05F001FA04F240EA020001F0004110EBD37041F100015EEA430E08BF20EA6A
:402A8000D37070BDC4F1200500FA05F24EEA020E20FA04F301FA05F243EA020321FA04F001F0004121FA04F220EA020000EBD3705EEA430E08BF20EAD37070BD94F0000F65
:402AC0000FD101F00046400041EB010111F4801F08BF013CF7D041EA060195F0000F18BF704703F00046520043EB030313F4801F08BF013DF7D043EA0603704794EA0C0FD7
:402B00000CEA135518BF95EA0C0F0CD050EA410618BF52EA4306D1D181EA030101F000414FF0000070BD50EA410606BF1046194652EA430619D094EA0C0F02D150EA013618
:402B400013D195EA0C0F05D152EA03361CBF104619460AD181EA030101F0004141F0FE4141F470014FF0000070BD41F0FE4141F4780170BD70B54FF0FF0C4CF4E06C1CEAB2
:402B800011541DBF1CEA135594EA0C0F95EA0C0F00F0A7F8A4EB050481EA030E52EA03354FEA013100F088804FEA03334FF0805545EA131343EA12634FEA022245EA11158D
:402BC00045EA10654FEA00260EF000419D4208BF964244F1FD0404F5407402D25B084FEA3202B61A65EB03055B084FEA32024FF480104FF4002CB6EB020E75EB030E22BF51
:402C0000B61A754640EA0C005B084FEA3202B6EB020E75EB030E22BFB61A754640EA5C005B084FEA3202B6EB020E75EB030E22BFB61A754640EA9C005B084FEA3202B6EB5A
:402C4000020E75EB030E22BFB61A754640EADC0055EA060E18D04FEA051545EA16754FEA06164FEAC30343EA52734FEAC2025FEA1C1CC0D111F4801F0BD141EA00014FF0D9
:402C800000004FF0004CB6E711F4801F04BF01430020B4F1FD0C88BFBCF5E06F3FF6AFAEB5EB030C04BFB6EB020C5FEA500C50F1000041EB045170BD0EF0004E4EEA11311F
:402CC00014EB5C04C2BFD4EB0C0541EA045170BD41F480114FF0000E013C90E645EA060E8DE60CEA135594EA0C0F08BF95EA0C0F3FF43BAF94EA0C0F0AD150EA01347FF430
:402D000034AF95EA0C0F7FF425AF104619462CE795EA0C0F06D152EA03353FF4FDAE1046194622E750EA410618BF52EA43067FF4C5AE50EA41047FF40DAF52EA43057FF41E
:402D4000EBAE12E74FEA4102B2F1E04324BFB3F5001CDCF1FE5C0DD901F0004C4FEAC0024CEA5070B2F1004F40EB830008BF20F00100704711F0804F21D113F13872BCBF83
:402D800001F00040704741F480114FEA5252C2F11802C2F1200C10FA0CF320FA02F018BF40F001004FEAC1234FEAD32303FA0CFC40EA0C0023FA02F34FEA4303CCE77FEA8B
:402DC000625307D150EA01331EBF4FF0FE4040F44000704701F0004040F0FE4040F40000704700BF80F0004002E000BF81F0004142001FBF5FEA410392EA030F7FEA226CD5
:402E00007FEA236C6AD04FEA1262D2EB1363C1BFD218414048404140B8BF5B42192B88BF704710F0004F40F4000020F07F4018BF404211F0004F41F4000121F07F4118BF5D
:402E4000494292EA030F3FD0A2F1010241FA03FC10EB0C00C3F1200301FA03F100F0004302D5494260EB4000B0F5000F13D3B0F1807F06D340084FEA310102F10102FE2A89
:402E800051D2B1F1004F40EBC25008BF20F0010040EA03007047490040EB000010F4000FA2F10102EDD1B0FA80FCACF1080CB2EB0C0200FA0CF0AABF00EBC250524218435D
:402EC000BCBFD0401843704792F0000F81F4000106BF80F400000132013BB5E74FEA41037FEA226C18BF7FEA236C21D092EA030F04D092F0000F08BF0846704790EA010F6D
:402F00001CBF0020704712F07F4F04D1400028BF40F00040704712F100723CBF00F50000704700F0004343F0FE4040F4000070477FEA226216BF08467FEA236301464202B7
:402F400006BF5FEA412390EA010F40F4800070474FF0000304E000BF10F0004348BF40425FEA000C08BF704743F0964301464FF000001CE050EA010208BF70474FF00003DB
:402F80000AE000BF50EA010208BF704711F0004302D5404261EB41015FEA010C02BF84460146002043F0B64308BFA3F18053A3F50003BCFA8CF2083AA3EBC25310DB01FA46
:402FC00002FC634400FA02FCC2F12002BCF1004F20FA02F243EB020008BF20F00100704702F1200201FA02FCC2F1200250EA4C0021FA02F243EB020008BF20EADC7070471A
:4030000042000ED2B2F1FE4F0BD34FF09E03B3EB126209D44FEA002343F0004323FA02F070474FF00000704712F1610F01D1420202D14FF0FF3070474FF00000704700BF0D
:40304000014B1868704700BF4081FF1F0E4B70B51E460E4C0025E41AA410A54204D056F8253098470135F8E703F0F2F9084B094C1E46E41AA4100025A54204D056F82530AB
:4030800098470135F8E770BD5C6400005C6400005C6400006464000070B50E46B1F90E1090B0002914461D4606DA00232B60B3891A060ED540230EE001AA02F02DF8002878
:4030C000F3DB029A02F47042A2F500535A425A412A604FF480630020236010B070BD00008B8973B59E0705460C4610D401AB6A46FFF7D2FF00990646284600F08DF868B9EF
:40310000B4F90C309A0522D443F00203A38104F14703236023610123636118E00D4BAB62A389206043F08003A381009B20616361019B4BB1B4F90E10284602F01DF818B123
:40314000A38943F00103A381A0893043A08102B070BD00BFC14F000010B5431E0A44914204D011F8014B03F8014FF8E710BD03460244934202D003F8011BFAE77047000011
:4031800038B50546002944D051F8043C0C1F002BB8BFE41802F047F81E4A1368114613B96360146030E0A3420DD92268A018834201BF18685B681218226063600C6023E017
:4031C000A24203D813465A68002AF9D118681918A1420BD12168014458188242196013D110685268014419605A600DE002D90C232B6009E021686018824201BF1068526866
:403200000918216062605C602846BDE8384002F00BB838BD1C8BFF1F70B5CD1C25F0030508350C2D38BF0C25002D064601DBA94202D90C23336046E001F0F5FF234B1C68D1
:403240001A462146A1B10B685B1B0ED40B2B03D90B60CC18CD501EE08C420BBF63684B681360636018BF0C4615E00C464968E9E7174C23681BB9304600F05CFE2060294640
:40328000304600F057FE431C18D0C41C24F00304A0420DD12560304601F0C6FF04F10B00231D20F00700C31A0ED05A42E25070BD211A304600F03EFE0130EBD10C23336007
:4032C000304601F0B1FF002070BD00BF1C8BFF1F188BFF1F936810B4013B002B936008DA9469A34202DBCBB20A2B02D110BC00F0AFBE1368581C10601970C8B210BC7047D8
:40330000F8B506460F461446D518AC4208D03A4614F8011B3046FFF7DDFF431CF5D100E00020F8BD2DE9F04F9DB00C4617460393064618B183690BB901F082FE7F4B9C42A3
:4033400001D1746808E07E4B9C4201D1B46803E07C4B9C4208BFF468A38918070CD5236953B10023099320238DF8293030238DF82A30DFF8D4B144E02146304600F0CEFE90
:403380000028EED04FF0FF30D5E0039A111D12680391002A80F28C80524243F002000792049098F800302E2B00F08480032298F80010654801F00EFF48B14023CBEB0000FE
:4033C00003FA00F0049B08F101081843049098F8001006225D4808F101078DF8281001F0F9FE002800F09580594B002B40F08880039B073323F0070308330393099B534408
:403400000993B846454615F8013B1BB9B8EB07090FD003E0252BF9D0A846F3E74B463A4621463046FFF76CFF01307FD0099B4B44099398F80030002B78D000234FF0FF3290
:4034400004930793059206938DF853301A930127052229783F4801F0BDFE05F10108049B38B13C4A4546801A07FA00F018430490EEE7D90644BF20228DF853201A0744BFEC
:403480002B228DF853202A782A2A3FF47EAF079A00210A20A84698F800300135303B092B03D800FB02320121F4E700293FF479AF079276E798F801302A2B0BD1039B08F1F8
:4034C00002081A1D1B680392002BB8BF4FF0FF3305936BE700231946059308F101000A25804698F800200130303A092A03D805FB01210123F4E7002B3FF458AF059155E7BC
:4035000003AB00932246144B04A9304600F0B8F807E003AB009322460F4B04A9304600F069FBB0F1FF3F82467FF468AFA3895B063FF528AF09981DB0BDE8F08FE8620000BA
:4035400008630000286300009A6200009E6200008136000094620000013300002DE9F04788B0149F002B1E461299B8BF03F1004327F02007B6BF1E4600232D23462F1446FF
:40358000109DDDF84CA00B7003D0452F03D1013501E0032300E0022307AA049206AA03928DE828042246334600F0C2FE472F804602D1119BDB0728D5462F08EB050911D115
:4035C00098F80030302B0AD1002200232046314602F0F4FA18B9C5F10105CAF80050DAF800309944002200232046314602F0E6FA08B9302202E0CDF81C9006E0079B994595
:4036000003D9591C07911A70F8E74046079B159AC8EB0303136008B0BDE8F087034673B50029B8BF494203F8022BB4BF2D222B22092942701ADD0DF1070216460A2591FB95
:40364000F5F405FB1411092C01F1300102F8011D2146F4DC3031541E02F8011CB4421A460AD214F8012B03F8012BF7E71A463024214402F8024B5970101A02B070BD00000A
:403680002DE9F04F91B00C46DDF8688016461F46054601F081FD03681846099300F0D0FC00230E93D8F800300A90073323F0070303F1080294F81890D4F800B0C8F8002086
:4036C000D3E90023C4E91223D4F84CA0D4F848802AF000430B934FF0FF32A74B40460B9902F09EFAA0B94FF0FF32A34B40460B9902F078FA60B9002200234046514602F0FA
:4037000067FA10B12D2384F843309C4B9C4A0AE0424653464046514602F082FA002800F09281984B984AB9F1470F8CBF90469846032323612BF0040323604FF0000A3DE021
:40374000B9F1670F00F08A81B9F1470F00F0868123600193636800210DF13302059002920093424653460691CDF81090CDF80CE02846FFF7F3FE09F0DF03472B804600F01F
:403780008481B9F1650F0D9900F28D8101394A4604F150000D91FFF741FF0E9A82468318012A236100F37C812268D10700F178819DF8333013B12D2384F84330009733465C
:4037C0000FAA2146284600F09FF9013002D14FF0FF3096E123685A0501D4236965E0B9F1650F40F2D580D4E912010022002302F0E5F978B30123654A31462846B84701309D
:40380000E5D00E9B0D9A9A420BDB2368D80708D423689B0740F111814FF0000804F1190906E10A9B099A31462846B8470130CED04FF0000804F11A090E9B013B9845E7DA69
:4038400001234A4631462846B8470130BFD008F10108F1E70D9B002B29DC01234B4A31462846B8470130B2D00D9B23B90E9B13B92368D907CCD50A9B099A31462846B847BD
:403880000130A4D04FF0000904F11A0A0D9B5B42994509DA0123524631462846B847013095D009F10109F1E70E9B4246A7E00E9AA36D9A42A8BF1A46002A914606DC4FF0B5
:4038C000000A29EAE97904F11A0B11E01346314642462846B8470130F1D178E701235A4631462846B84701303FF471AF0AF1010AA36DC9EB03029245F0DB08EB03090D9AE4
:403900000E9B9A420FDB2368DA070CD40E9B0D9A9844C9EB08089B1A9845A8BF9846B8F1000F08DC0FE00A9B099A31462846B8470130EBD14BE743464A4631462846B84732
:4039400001303FF444AF4FF0000928EAE87804F11A0A09E00123524631462846B84701303FF435AF09F101090D9A0E9B9B1AC8EB03039945EEDB4BE7FFFFEF7FA56200003E
:40398000A9620000AD620000B1620000B56200000E9A012A01DCDB0738D50123424631462846B84701303FF412AF0A9B099A31462846B84701303FF40AAFD4E91201002234
:4039C000002302F0FBF820B14FF0000804F11A090EE00E9B08F10102013B19E001234A4631462846B84701303FF4F1AE08F101080E9B013B9845F1DB534604F15002314645
:403A00002846B84701307FF403AFE0E64246012331462846B8470130EED1D8E601234A4631462846B84701303FF4D1AE08F10108E3680F9A9B1A9845F0DBE0680F9B984225
:403A4000B8BF18465DE062680EA8531C0DF1340E4BF480637FF474AE062201E012B90122626075E6002106910DF133018DE80C00236005904246CDF81090CDF80CE0029186
:403A800053462846FFF76AFD80460D9BD81C02DB626893421DDDA9F102095FFA89F970E60133236184E6B9F1660F14D10029636807DD216113B92268D2071DD501330B44D0
:403AC00019E013B92268D00701D5023313E0012311E04FF067090D9B0E9A934205DB22682361D10708D5013305E0002BD4BFC3F102030123134423610D9B4FF0000AA3658E
:403B000056E611B0BDE8F08F2DE9F04791461F460A698B6806469342B8BF1346C9F8003091F843200C46DDF8208012B10133C9F800302368990642BFD9F800300233C9F8D6
:403B40000030256815F0060510D104F1190A07E00123524639463046C04701301AD00135E368D9F800209B1A9D42F1DB94F843302268003318BF012392060FD5E118302077
:403B800081F843005A1C94F845102244023382F8431003E04FF0FF30BDE8F08704F1430239463046C0470130F4D02268D9F80050E36802F00602042A08BF5D1B2269A368FF
:403BC0000CBF25EAE57500259342C4BF9B1AED184FF000091A344D4509D00123224639463046C0470130D5D009F10109F3E70020BDE8F0872DE9F04317460A7E85B06E2AE6
:403C0000984606460C460C9B01F1430E00F0AE8011D8632A22D009D8002A00F0BB80582A40F0CA8081F84520834955E0642A1ED0692A1CD0C0E0732A00F0B08009D86F2AB5
:403C40002ED0702A40F0B8800A6842F020020A603EE0752A24D0782A3AD0ADE01A6801F14205111D1960136884F84230A8E021681A6811F0800F02D0111D196008E011F0DA
:403C8000400F02F10401196002D0B2F9003000E01368002B3CDA2D225B4284F8432037E021681A6811F0800F02D0111D196007E011F0400F02F10401196001D0138800E011
:403CC0001368227E5C496F2A14BF0A2208221BE078225A4984F845202268186812F0800F00F104051D6003D1550601D5038800E00368D00744BF42F0200222601BB922682E
:403D000022F0200222601022002084F8430001E049490A226568002DA56008DB206820F0040020602BB9002D7DD175460CE0002B79D07546B3FBF2F002FB1033CB5C05F8F6
:403D4000013D03460028F5D1082A0BD12368DA0708D5236962689A42DEBF302305F8013C05F1FF35C5EB0E0323612EE008681A6810F0800F496903D0101D1860136808E090
:403D800010F0400F02F104001860136801D0198000E0196000232361754616E01A68111D1960156800216268284601F013FA08B1401B6060636804E004F1420584F8422015
:403DC00001232361002384F84330CDF800803B4603AA21463046FFF797FE013002D14FF0FF3026E023692A4639463046C0470130F5D023689B0710D5002504F1190907E093
:403E000001234A4639463046C0470130E7D00135E368039A9B1A9D42F2DBE068039B9842B8BF184605E00B7804F1420584F842308AE705B0BDE8F083B7620000C8620000C3
:403E40000FB40A4B13B51C6824B1A36913B9204601F0F6F805AB049AA16820460193FFF761FA02B0BDE8104004B070474081FF1F70B50E46054618B183690BB901F0E0F853
:403E8000AB69AC6813B9284601F0DAF8224B9C4201D16C6808E0214B9C4201D1AC6803E01F4B9C4208BFEC68A3891B0701D523693BB92146284600F031F910B14FF0FF30CC
:403EC00070BD013EA36816F8011F013BA36091B1002B04DAA269934206DB0A2904D023685A1C22601970EDE72246284600F0B0F80130E7D1E2E7002B08DA22460A212846BD
:403F000000F0A6F80130D9D00A2070BD23680A205A1C2260187070BDE86200000863000028630000024B01461868FFF7A1BF00BF4081FF1F38B5064C00230546084623609A
:403F4000FDF7A6F8431C02D1236803B12B6038BD9C8CFF1F0EB400B54FF402719CB0ADF814106FF00041049107914FF6FF711DAB02900690084853F8042BADF816100068C7
:403F800002A9019301F0B4FC029B00221A701CB05DF804EB03B070474081FF1F10B50C46B1F90E1001F098FD0028ABBF636DA3891B1823F48053ACBF6365A38110BD2DE935
:403FC000F0411F468B890546DB050C46164605D502230022B1F90E1001F0E2F8A389324623F48053A381B4F90E103B462846BDE8F04100F081B810B50C46B1F90E1001F04F
:40400000CFF8431CA38915BF606523F4805343F48053A38118BFA38110BDB1F90E1000F0EBB8024610B513461C780132002CFAD1013B11F8012B03F8012F002AF9D110BDD9
:40404000034613F8012B002AFBD1181A01387047F8B50F461446064618B183690BB900F0EFFF224B9C4201D1746808E0204B9C4201D1B46803E01F4B9C4208BFF468A36937
:40408000A360A3891A0709D523693BB123682069FDB2181A636998420FDB08E02146304600F03CF80028F1D04FF0FF30F8BD2146304600F05BFF0028F6D1A368013BA36080
:4040C00023685A1C22601F706269431C934204D0A389DB0707D50A2D05D12146304600F045FF0028E0D12846F8BD00BFE8620000086300002863000038B5074C05460846FF
:404100001146002222601A46FCF7EAF8431C02D1236803B12B6038BD9C8CFF1F324B70B51D6806460C4625B1AB6913B9284600F087FF2E4B9C4201D16C6808E02C4B9C427F
:4041400001D1AC6803E02B4B9C4208BFEC68B4F90C309AB215071DD4D00602D4092232603AE0510712D5616B41B104F14403994202D03046FFF704F800236363A38923F0CC
:404180002403A3810023636023692360A38943F00803A38123694BB9A38903F42073B3F5007F03D021463046FEF79AFFA28912F0010305D00023A36063695B42A36103E00A
:4041C000920758BF6369A36023695BB9B4F90C3003F0800080B230B143F04003A3814FF0FF3070BD002070BD4081FF1FE8620000086300002863000038B5064C00230546E3
:404200000846236001F04AFD431C02D1236803B12B6038BD9C8CFF1F2DE9F74F03690C6980469C427FDC013C01F114074FEA840E00F1140606EB0E0357F82450019356F83B
:4042400024300135B3FBF5F507EB0E09C5B34FF0000A3846B446D34650F8043B9AB205FB02A21B0C4FEA124A05FB03A392B2C2EB0B0BBCF800204FEA134A5A441FFA83FB42
:40428000DCF800308145CBEB134303EB224392B242EA03424FEA234B4CF8042BDCD256F80E306BB9019B043B9E421A4602D3C8F8104005E01268043B002AF8D1013CF3E700
:4042C000404601F0BEF900282BDB304601354FF0000E57F8042B036891B2C1EB0E0E120C99B27144C2EB134303EB214389B24FEA234EB94541EA034340F8043BE9D256F82E
:40430000242006EB840362B9043B9E421A4602D3C8F8104005E01268043B002AF8D1013CF3E7284600E0002003B0BDE8F08F00002DE9F04F456A95B08246219CCDE90223AC
:4043400045B9102000F03EFFCAF82400456085600560C560DAF82430196859B15A68012393404A608B60504600F094FFDAF8243000221A60039BA04A002BBDBF0123236038
:40438000039B0023BCBF23F000430393DDF80C80A8BF236028F000431B0D1B0593421DD142F20F73209A1360029B43B9934A944BC8F31300002814BF1846104600E09048B7
:4043C000229B002B00F04685C37813B100F1080300E0C31C229A136000F03CBDDDE90245002200232046294601F0E8FB074658B1209A01231360229B002B00F01E85814862
:404400001860013800F026BD12AB019313AB009322462B46504601F08FF9C8F30A56049056B1C5F3130343F07F51204641F44011A6F2FF3611971DE0139B129E1E4406F2D1
:404440003243202B0ADD029A06F21240C3F1400322FA00F008FA03F3184304E0C3F12000029B03FA00F0FEF7E5F90123A1F1F871013E11930022644BFEF79EF858A3D3E92F
:404480000023FEF74DFA58A3D3E90023FEF796F8044630460D46FEF7DDF955A3D3E90023FEF73EFA02460B4620462946FEF786F804460D4601F0CAFB0022834600232046B6
:4044C000294601F085FB58B15846FEF7C3F902460B462046294601F071FB08B90BF1FF3BBBF1160F0DD8DDE90223484901EBCB01D1E9000101F08AFB30B10BF1FF3B00236D
:4045000000E00123109300E01090129B9E1B731E079343BFC3F10008002307934FF00008BBF1000F06DB079BCDF82CB05B440793002705E00023CBEB0808CBF100070B9393
:404540001E9B092B28D8052BC4BF043B1E931E9BC8BF0025A3F10203D8BF0125032B20D8DFE803F0060E0204012302E0012308E000230A931F9B002B1DDD9946059321E0CD
:4045800000230A931F9B0BEB030909F10103012B0593B8BF012315E0012500231E930A9501E001230A934FF0FF390022CDF8149012231F9206E04FF001094B46CDF81490E1
:4045C000CDF87C90DAF8244000226260042101F114029A421CD86268490001326260F6E761436F63A787D23FB3C8608B288AC63FFB799F501344D33F0000F07FD9620000A6
:40460000E2620000B66200000000F83F506300006168504600F009FEDAF8243020601B680693059B0E2B00F25B81002D00F05881DDE90234BBF1000FCDE90E3430DD9F4ADA
:404640000BF00F034FEA2B1502EBC303E80618CBCDE908340CD5DDE90E01994B05F00F05D3E90823FEF786FA0324CDE9020100E00224934E6DB1E90708D5DDE90801D6E9FF
:404680000023FEF74DF9CDE9080101346D100836F0E7DDE90823DDE90201FEF76BFA20E0CBF1000505B3DDE90E01844B05F00F0203EBC203D3E90023FEF732F9CDE9020174
:4046C0007F4E2D110023022455B1EA0705D5D6E90023FEF725F9013401236D100836F3E71BB1CDE9020100E00224109BE3B1DDE902560022734B2846314601F069FA98B168
:40470000059B8BB1B9F1000F40F3E6800BF1FF330893314600226C4B2846FEF701F90134CDE902014E4602E0059ECDF820B02046FEF790F8DDE90223FEF7F2F8634B0022BC
:40474000FDF73CFFA1F1507304460C931D46D6B9DDE9020100225E4BFDF72EFF22460C9BCDE9020101F052FA002840F03F820C99224601F10043DDE9020101F029FA0028C0
:4047800040F02B82A8E00A9A4C4B711E002A49D003EBC103D3E9002300204E49FEF7EAF922462B46FDF708FFCDE90C01069CDDE9020101F04BFA0546FEF74CF802460B4612
:4047C000DDE90201FDF7F8FEDDE90C23303504F8015BCDE9020101F0FBF9002840F01D83DDE9022300203749FDF7E6FEDDE90C2301F0EEF9002840F0D180069BE31AB34252
:404800006ADADDE90C0100222F4BFEF789F80022CDE90C01DDE902012B4BFEF781F8CDE90201C4E703EBC1012246D1E900012B46FEF776F8069BCDE90C011D469C19DDE970
:40484000020101F003FA0646FEF704F802460B46DDE90201FDF7B0FE303605F8016BAC42CDE902014FF0000222D11A4BDDE90C01FDF7A4FE02460B46DDE9020101F0C6F97C
:40488000002840F08B80DDE90C2300201149FDF793FE02460B46DDE9020101F099F9D8B114F8013C621E302B40F0B7821446F7E7054BFEF735F8CDE90201C0E750630000E9
:4048C000286400000000F03F0000244000001C40000014400000E03FDDE90E34CDE90234139B002B7CDBBBF10E0F79DCAB4B03EBCB03D3E900671F9B002B14DA059B002B15
:4049000011DC40F06C810022A54B30463946FEF707F8DDE9022301F06FF9059D2E46002840F05F8165E1069CDDE9028932463B4640464946FEF71EF901F088F90546FDF7DC
:4049400089FF32463B46FDF7EBFF0B46024649464046FDF731FE05F1300E069B04F801EBC3EB040E059B73452DD102460B46FDF725FE8046894602460B463046394601F070
:4049800027F978B942464B463046394601F016F9002800F04482EB0704D440E2DDF820B000E01C4614F8012C631E392A07D1069A9A42F6D1069930220BF1010B0A701A78AA
:4049C00001321A702BE20022764BFDF7A9FF002200238046894601F0F1F80028A6D01EE20A9A002A2BD01E9A012A0ADC119A12B103F2334302E0129BC3F136033D46444628
:404A000013E0059B5D1EAF42BFBF0B9BEA1B9B180B93059BB6BF2F467D1B0025002BA7BF4446059BC3EB08040023079A01211A4450469844079200F0CCFC064602E03D4689
:404A400044460A9E5CB1079B002B08DDA342A8BF2346079AC3EB0808E41AD31A0793002F1DDD0A9BABB18DB131462A46504600F049FD049A01460646504600F0B3FC04998E
:404A80000890504600F006FC089B04937A1B06D000E03A460499504600F034FD04900121504600F096FC0B9B05465BB31A460146504600F027FD1E9B0546012B18DC029B9E
:404AC00083B9039BC3F3130373B9039B23F000473F0D3F054FB1079B08F1010801330793012702E0002700E0029F0B9B73B100E000272B6905EB8303186900F01DFCC0F122
:404B0000200004E01E9B012BD9DD0B9F0120079B184410F01F0008D0C0F12003042B02DDC0F11C0002E006D018461C30079B8044034404440793B8F1000F05DD42460499B7
:404B4000504600F02DFD0490079B002B05DD29461A46504600F024FD0546109B23B32946049800F06EFD00281EDA00230A220499504600F0A6FB0A9B0BF1FF3B0490002BCD
:404B800000F05F81314600230A22504600F099FBB9F1000F06463FDC3BE000BF506300000000144000002440059B002B2BDC1E9B022B28DDDDF81490B9F1000F11D12946A0
:404BC0004B460522504600F07CFB01460546049800F037FD00280CDC03E0354600E000252E461F9B069C6FEA030B09E03546DDF820B0069B069A5C1C312313700BF1010B63
:404C000005960026F7E00A9BDDF8149023B9069CB2E01E9B022BCFDC002C05DD31462246504600F0BDFC06469FB17168504600F0FCFA0446326906F10C01023292000C3015
:404C4000FEF78AFA01222146504600F0A9FC059000E00596029B069F03F00103079329460498FFF7D9FA3146044600F13008049800F0E7FC059A02902946504600F0FDFCD7
:404C8000C36802463BB901460A90049800F0D9FC0A9A034600E00123114650460A9300F0F9FA0A9B53B91E9A42B9079A32B9B8F1390F2AD0029B002B1CDC1DE0029A002A8F
:404CC00004DB1BD11E9ACAB9079ABAB9002B13DD01220499504600F063FC2946049000F0B0FC002803DC07D118F0010F04D0B8F1390F0AD004F131087C1C0CE0002B07F1D0
:404D000001040BDDB8F1390F03D139233B70013756E008F1010887F800806CE0069B2746E31A4B4504F8018C3BD000230A220499504600F0C6FA059B04909E424FF00A023F
:404D40004FF000033146504604D100F0BAFA0646059084E700F0B5FA002306460A220599504600F0AEFA059079E700230A220499504600F0A6FA049029460498FFF74CFA37
:404D8000069B00F1300804F8018BE31A4B45ECDB069B0596B9F1010FACBF4B4401331F46002601220499504600F0FAFB2946049000F047FC002803DC15D118F0010F12D046
:404DC0003C4614F8013C621E392B09D1069B934204D10BF1010B3123069A02E01446F0E70133137007E03C4614F8013C621E302B01D11446F8E72946504600F04BFA059BA7
:404E00006BB12EB19E4203D03146504600F042FA0599504600F03EFA01E0DDF820B00499504600F037FA0023209A23700BF101031360229B1BB11C6001E008480AE00698B4
:404E400008E0B9F1000F3FF7E2AE1E9B022B7FF7DEAEB1E615B0BDE8F08F00BFB56200008A892DE9F041054610070C4659D44B68002B02DC0B6C002B17DDE66AAEB102F45B
:404E80008052002392B22F682B600AB1606D15E0216A01232846B047411C0FD12B686BB11D2B01D0162B03D12F600020BDE8F081A38943F04003A381BDE8F081A3895A07BE
:404EC00005D56368C01A636B0BB1236CC01A00230246E66A216A2846B047431CA38906D129681D2939D8204ACA40D60735D5002262602269D904226004D5421C01D12B6886
:404F000003B96065616B2F600029CED004F14403994202D02846FEF733F900206063BDE8F0810F69002FC0D093070E680CBF4B690023C7EB06080F608B6002E00744C0EB82
:404F40000808B8F1000FB0DD43463A46216A2846A66AB0470028F1DCA38943F04003A3814FF0FF30BDE8F0810100402038B50B6905460C46DBB118B183690BB900F060F8E8
:404F80000C4B9C4201D16C6808E00B4B9C4201D1AC6803E0094B9C4208BFEC68B4F90C302BB121462846BDE83840FFF759BF002038BD00BFE862000008630000286300000B
:404FC000014900F0BBB800BF6D4F000010B50446002303604360836081814366C281036143618361194608225C30FEF7C0F8054B24626362044BA362044BE362044B23637A
:4050000010BD00BF9D3F0000BF3F0000F73F00001B40000070B568234D1E5D430E4605F17401FEF7F9F8044640B1002180E842000C30A06005F16802FEF799F8204670BD5E
:40504000836910B5044633BB8364C3640365124B124A1B688262984204BF0123836100F01FF86060204600F01BF8A060204600F017F80022E06004216068FFF7A7FF012269
:405080000921A068FFF7A2FF02221221E068FFF79DFF0123A36110BD90620000C14F0000F8B51C4B07461E68B36913B93046FFF7C7FF4836B4687368013B04D4B4F90C506C
:4050C0007DB16834F8E733680BB13668F2E704213846FFF79FFF30600028F6D10C233B60F8BD4FF6FF73E3810123A38165662560A560656025616561A5610822294604F1A7
:405100005C00FEF734F86563A563A564E5642046F8BD00BF9062000038B5074C0023054608461146236000F0C1FD431C02D1236803B12B6038BD00BF9C8CFF1F2DE9F84339
:405140008046894600F14804002694B1A5686768013F0CD4AB89012B07D9B5F90E30013303D029464046C84706436835F0E72468EBE73046BDE8F88338B5064C0023054661
:405180000846236000F09AFD431C02D1236803B12B6038BD9C8CFF1F004870474481FF1F38B5074C054608461146002222601A4600F08CFD431C02D1236803B12B6038BDE0
:4051C0009C8CFF1F024B01461868FEF725B800BF4081FF1F10B5C9B202449042034605D01C7801308C42F8D1184610BD002010BD884210B501EB020301D8421E0BE098427D
:40520000FBD28118D21AD34204D013F8014D01F8014DF8E710BD994204D011F8014B02F8014FF8E710BD7047704770B5456A04460E463DB91020FFF7C5FF606245608560E1
:405240000560C560656AEB6843B1636ADB6853F8260078B1026843F8262017E021220421204600F0B7FA636AE860DB68002BECD1002070BD012101FA06F56A1D920020466F
:4052800000F0A8FA0028F3D04660856000230361C36070BD70B5446A06460D463CB91020FFF790FF7062446084600460C4603DB1736A6A68DB6853F82210296043F822507E
:4052C00070BD2DE9F04106460C460D691F4601F1140E0023DEF80000013381B202FB0171000C0F0C02FB007089B201EB00419D424FEA10474EF8041BECDCD7B1A3689D42D4
:4053000012DB616830460131FFF78FFF8046226904F10C01023292000C30FDF71DFF21463046FFF7B7FF444604EB850301355F6125612046BDE8F081030C1B0413B90004A6
:40534000102300E0002310F07F4F04BF0002083310F0704F04BF0001043310F0404F04BF80000233002803DB420003D5581C70471846704720207047036813F007020BD0BF
:40538000D90722D49A074BBF5B089B08036003604CBF01200220704799B209B91B0C102213F0FF0F04BF1B0A0832190704BF1B090432990704BF9B080232D90702D45B0872
:4053C00005D00132036010467047002070472020704710B50C460121FFF727FF01224461026110BD2DE9F74F14460A69236988469A42BEBF0B46A0461C46D8F81070D4F889
:405400001090D8F80830D8F8041007EB09069E42C8BF0131FFF709FF00F114052B4605EB860C0022634502D243F8042BFAE704F1140208F1140102EB890301EB87070093C3
:40544000009B0192934257D9B2F800B0BBF1000F23D08946AE464FF0000859F8044BBEF800A0A3B20BFB03A34FEA144ADEF8004043444FEA14480BFB0A84F24604EB134415
:405480009BB243EA04434F454FEA14484AF8043B01D9D646E1E7CEF80480019B0432B3F802A0BAF1000F21D02C4689462B684FF00008B9F800E0B4F802B09BB20AFB0EBE87
:4054C000A346F04443EA08434BF8043B59F8043BB4F804E01B0C0AFB03E34F4503EB18434FEA134801D95C46E3E763600435A7E75CF8043D13B9013E002EF9DC066103B065
:40550000BDE8F08F2DE9F843154612F0030206460F4607D0214C013A002354F82220FFF7D0FE0746AD1036D0746A3CB91020FFF749FE7062446084600460C460D6F824805B
:40554000D8F808404CB940F271213046FFF741FF04460023C8F8080003604FF00008EB070AD5394622463046FFF73CFF814639463046FFF78FFE4F466D100CD0206808B1F2
:405580000446ECE7224621463046FFF72BFF2060C0F80080F4E73846BDE8F883186400002DE9F0470C460746914626694FEA621A56444968A368751CAB4202DA01315B0078
:4055C000FAE73846FFF731FE002380461A4600F11401534503DA41F823200133F9E72AEAEA73206901EB830319F01F0904F1140101EB800E14D0C9F1200C002208689A4676
:4056000000FA09F0024343F8042B51F8042B8E4522FA0CF2F2D8CAF8042042B1B51C06E0043B51F8042B8E4543F8042FF9D8013D3846C8F810502146FFF72CFE4046BDE8B2
:40564000F08703690A6910B59B1A11D192001430143183180A4453F8044D52F8041D8C4202D007D3012010BD9842F4D3002010BD184610BD4FF0FF3010BD2DE9F8430C466E
:405680000746114620461546FFF7DBFF061E08D131463846FFF7C9FD012303614661BDE8F883BCBF23462C4638466168BABF1D4601260026FFF7B9FD2B69C660266905F107
:4056C000140904F1140101EB860709EB830800F114054FF0000C51F8042B59F8044B93B29C44A3B2240CC3EB0C03C4EB124202EB23429BB24FEA224CC84543EA02428E461C
:4057000045F8042BE7D8BE450ED25EF8041B8AB26244131403EB114392B242EA03424FEA234C45F8042BEEE755F8043D0BB9013EFAE70661BDE8F8832DE9F3411C46012136
:405740009046089E099DFFF770FDC4F31302C4F30A5407460CB142F480120192B8F1000F19D002A840F8088DFFF706FE009B48B1019AC0F1200102FA01F10B43C2407B6131
:40578000019200E07B61019B002B14BF02210121BB61396107E001A8FFF7EEFD019B01217B613961203034B1A4F2334404443460C0F1350009E0A0F2324007EB8103306069
:4057C0001869FFF7B9FDC0EB41102860384602B0BDE8F08138B502FB01F42146FDF71CFD054618B122460021FDF7C1FC284638BDF8B5074615460E4621B91146BDE8F840F7
:40580000FDF70ABD1AB9FDF7BBFC2846F8BD00F075F985420ED929463846FDF7FDFC044650B131462A46FDF797FC31463846FDF7A7FC01E03046F8BD2046F8BD2DE9F0476D
:405840008E6882469E420C46914698463ED88A8912F4906F3AD02568096902236F1A656905EB450595FBF3F57B1C43449D4238BF1D4653050FD52946FDF7CEFC064698B1C9
:405880003A462169FDF768FCA38923F4906343F08003A38113E02A46FFF7AAFF064670B921695046FDF76CFC0C23CAF80030A3894FF0FF3043F04003A381BDE8F08726618B
:4058C0003E44266046466561ED1BA560464528BF4646494632462068FFF78AFCA36800209B1BA36023681E442660BDE8F08700002DE9F04F9DB003938B8980461C060D463E
:4059000016460DD50B695BB94021FDF785FC2860286118B90C23C8F80030CDE040236B610023099320238DF82930DFF89CB130238DF82A3037463C4614F8013B1BB9B7EBFB
:40594000060910D003E0252BF9D02746F3E74B46324629464046FFF771FF013000F0A780099B4B4409933B78002B00F0A08000234FF0FF3204930793059206938DF8533090
:405980001A930126052221784E48FFF723FC671C049B38B14B4A3C46801A06FA00F018430490EFE7D90644BF20228DF853201A0744BF2B228DF8532022782A2A03D0079A50
:4059C00000210A200BE0039A111D12680391002A10DA524243F00200079204900BE027463B780134303B092B03D800FB02320121F5E701B107923B782E2B1ED17B782A2B19
:405A00000AD1039B02371A1D1B680392002BB8BF4FF0FF33059310E0002319460593781C0A2407463A780130303A092A03D804FB01210123F5E703B105910322397822489B
:405A4000FFF7C8FB40B14023CBEB000003FA00F0049B013718430490397806221B487E1C8DF82810FFF7B6FB88B1194B33B9039B073323F007030833039314E003AB0093F2
:405A80002A46144B04A94046FDF7FAFD07E003AB00932A460F4B04A94046FEF7ABF8B0F1FF3F824603D0099B5344099342E7AB895B0601D4099801E04FF0FF301DB0BDE8F6
:405AC000F08F00BF946200009A6200009E620000813600003D58000038B5074C054608461146002222601A4600F0F8F8431C02D1236803B12B6038BD9C8CFF1F51F8040C86
:405B00000028BEBF091851F8043CC018043870474FF0FF3C06E000BF4FF0010C02E000BF4FF0010C4DF804CD4FEA410C7FEA6C5C4FEA430C18BF7FEA6C5C1BD001B050EAC0
:405B4000410C0CBF52EA430C91EA030F02BF90EA020F0020704710F1000F91EA030F58BF994208BF90422CBFD8176FEAE37040F0010070474FEA410C7FEA6C5C02D150EA78
:405B8000013C07D14FEA430C7FEA6C5CD6D152EA033CD3D05DF8040B704700BF8446104662468C461946634600E000BF01B5FFF7B7FF002848BF10F1000F01BD4DF808ED9E
:405BC000FFF7F4FF0CBF012000205DF808FB00BF4DF808EDFFF7EAFF34BF012000205DF808FB00BF4DF808EDFFF7E0FF94BF012000205DF808FB00BF4DF808EDFFF7CEFF7E
:405C000094BF012000205DF808FB00BF4DF808EDFFF7C4FF34BF012000205DF808FB00BF4FEA410C7FEA6C5C02D150EA013C0AD14FEA430C7FEA6C5C02D152EA033C02D1C5
:405C40004FF0000070474FF0010070474FEA410212F5001215D211D56FF47873B3EB625212D94FEAC12343F0004343EA505311F0004F23FA02F018BF404270474FF0000039
:405C8000704750EA013005D111F0004008BF6FF0004070474FF00000704700BF024B58221A604FF0FF3070479C8CFF1F024B58221A604FF0FF3070479C8CFF1F024B5822BA
:405CC0001A600020704700BF9C8CFF1F024B58221A604FF0FF3070479C8CFF1F024B58221A604FF0FF3070479C8CFF1F00000000696E76616C69645F6B657900666C6F77AF
:405D00005F7461726765740070685F74617267657400000065635F7461726765740000006832305F6C6576656C5F746172676574000000006832305F6C6576656C000000A9
:405D40006832305F73746F726564000070685F6D656173757265640070685F75705F73746F7265640000000070685F646F776E5F73746F726564000065635F6D65617375AF
:405D80007265640065635F73746F72656400000074656D705F6D65617375726564000000666C6F775F6D656173757265640000003A00000025643A25302E336600000000FF
:405DC00025733A25660D0A00696E76616C69645F6B657900666C6F775F7461726765740070685F74617267657400000065635F7461726765740000006832305F6C657665C1
:405E00006C5F746172676574000000006832305F6C6576656C0000006832305F73746F726564000070685F6D656173757265640070685F75705F73746F726564000000007C
:405E400070685F646F776E5F73746F726564000065635F6D656173757265640065635F73746F72656400000074656D705F6D65617375726564000000666C6F775F6D656159
:405E80007375726564000000487964726F706F6E6963204175746F6D6174696F6E0D0000696E76616C69645F6B657900666C6F775F7461726765740070685F7461726765DB
:405EC0007400000065635F7461726765740000006832305F6C6576656C5F746172676574000000006832305F6C6576656C0000006832305F73746F726564000070685F6DBA
:405F0000656173757265640070685F75705F73746F7265640000000070685F646F776E5F73746F726564000065635F6D656173757265640065635F73746F72656400000058
:405F400074656D705F6D65617375726564000000666C6F775F6D65617375726564000000253032580000000025730D0A00000000696E76616C69645F6B657900666C6F7774
:405F80005F7461726765740070685F74617267657400000065635F7461726765740000006832305F6C6576656C5F746172676574000000006832305F6C6576656C00000027
:405FC0006832305F73746F726564000070685F6D656173757265640070685F75705F73746F7265640000000070685F646F776E5F73746F726564000065635F6D656173752D
:406000007265640065635F73746F72656400000074656D705F6D65617375726564000000666C6F775F6D6561737572656400000041424344313233344546474835363738CD
:406040000000000072000000736176655F646174612E6461740000004572726F72206F70656E696E6720736176656420646174612E00000068326F5F6C6576656C3D256C1C
:40608000660A68326F5F73746F7265643D256C660A70685F6C6576656C3D256C660A70685F75705F73746F7265643D256C660A70685F646F776E5F73746F7265643D256CB5
:4060C000660A65635F6C6576656C3D256C660A65635F73746F7265643D256C660A74656D705F6D656173757265643D256C660A666C6F775F6D656173757265643D256C6673
:406100000A666C6F775F7461726765743D256C660A70685F7461726765743D256C660A65635F7461726765743D256C660A68326F5F7461726765743D256C660A74656D70AE
:406140005F7461726765743D256C660A50726F6475637449443D25730A0000007700000068326F5F6C6576656C3D25662668326F5F73746F7265643D25662670685F6C65DA
:4061800076656C3D25662670685F75705F73746F7265643D25662670685F646F776E5F73746F7265643D25662665635F6C6576656C3D25662665635F73746F7265643D259C
:4061C000662674656D705F6D656173757265643D256626666C6F775F6D656173757265643D256626666C6F775F7461726765743D25662670685F7461726765743D25662627
:4062000065635F7461726765743D25662668326F5F7461726765743D25662674656D705F7461726765743D25662650726F6475637449443D25732600004F00400C004051C6
:406240000040300000000140800400050140000B00140140800400190140000300400140000A004C01400002005001402000000060520040280D0048060080040140300D20
:406280000048800080180140B00D004880004300E080FF1F232D302B2000686C4C0065666745464700494E4600696E66004E414E006E616E003000303132333435363738D0
:4062C00039414243444546003031323334353637383961626364656600496E66696E697479004E614E00000000000000000000000000000000000000000000000000000027
:40630000000000000000000000000000000000000000000000000000000000000000000000000000000000000000000000000000000000000000000000000000000000005D
:406340000000000000000000504F534958002E00000000000000F03F000000000000244000000000000059400000000000408F40000000000088C34000000000006AF840F4
:406380000000000080842E4100000000D01263410000000084D797410000000065CDCD41000000205FA00242000000E876483742000000A2941A6D42000040E59C30A2421B
:4063C0000000901EC4BCD64200003426F56B0C430080E03779C3414300A0D8855734764300C84E676DC1AB43003D9160E458E143408CB5781DAF154450EFE2D6E41A4B44ED
:4064000092D54D06CFF08044F64AE1C7022DB544B49DD9794378EA4405000000190000007D000000000000000080E03779C34143176E05B5B5B89346F5F93FE9034F384D1F
:40644000321D30F94877825A3CBF737FDD4F1575F8B500BFF8BC08BC9E4670474D0000007D110000F8B500BFF8BC08BC9E4670472900000088640000C880FF1FB80000005A
:40648000200B00000000000000000000A08CFF1F00366E01C05D0000180000000000E02E00000000E86200000863000028630000000000000000000000000000000000003F
:4064C0008E620000000000000000000000000000000000000000000000000000000000000000000000000000000000000000000000000000000000000000000000000000AC
:40650000E080FF1F4E630000996200009962000099620000996200009962000099620000996200009962000099620000FFFFFFFFFFFFFFFFFFFFFFFFFFFF00000000000067
:40654000000000000000000000000000000000000000000000000000000000000000000000000000000000000000000000000000000000000000000000000000000000001B
:4065800000000000000000000000000000000000000000000000000000000000000000000000000000000000000000000000000000000000000000000000000000000000DB
:4065C000000000000000000000000000000000000000000000000000000000000000000000000000000000000000000000000000000000000000000000000000000000009B
:40660000000000000000000000000000000000000000000000000000000000000000000000000000000000000000000000000000000000000000000000000000000000005A
:020000040003F7
:0200000480007A
:40000000014F004004520040015B00400664004003650040540001402701014050020140390301401304014048050140550601404D0701404B0801404B090140420A0140D1
:40004000390B01404B0C01403B0D01402C0E0140230F01404414014035150140371601403317014008180140431901405E1A01403C1B01400A400140124101400A420140B4
:400080000E430140074501400B46014002470140134801400C490140084C0140074D01400A500140025101400A7209401104194078012F21830D850F8A388B0F8D0D8F0FC6
:4000C000860D89728B0D040109030B040C010F0512011503160417041A061D031E021F0C220A2401280C290A2A022B042E0C2F083001340E370F3A203B803E01405449FF41
:400100004AFF4BFF4F0150185280580459045A045B045C445D335F016040624064406540668068806A806C806E808E018F019101920197019901A601A801B101B201BE0492
:40014000BF01C054C9FFCAFFCBFFCD83CE03CF01D018D804D904DA04DD03DF01E040E240E440E540E680E880EA80EC80EE800311070108080A480B010E40100512801348A9
:4001800017181A881E202280260228053284371938903E4041014280468048024C0270028010840886028A10C085C21FC46FCA0CCCEACE1CD081D218E280E6090301071065
:4001C0000B04111613091513170C190F1B102B082F02311F405149FF4AFF4BFF4D834E034F01501859045A045D035F016040624064406540668068806A806C806E808706F1
:4002000088018B028C028F019308960199069B01A308A703A801AB05B307B403B708B820BB08BF40C054C5ECC720C823C9FFCAFFCBFFCD83CE03CF01D018D401D804D9044C
:40024000DA04DB04DC11DD33DF01E040E240E440E540E680E880EA80EC80EE8001600A2012041310180822402330250229202A052E202F0130023210371D382839403D04AF
:400280003E12410146014802490A4C0251015201590A5A806A406B0292089502964097409C049F19A002A280A840AA40AB01B204B340B680C003C204C402CA37CCE5CEEE6D
:4002C000D011D218D60BE202E602EA01EC0140614105420349FF4AFF4BFF4F0150185A045F016040624064406540668068806A806C806E8004400502064207140C100D023B
:400300000E191402153417011C081D081EA027082C802D042E102F11341037453C403D903E2540024188458848024A0C4C024E094F05548055805EA05F056E446F157E01F1
:40034000810283018C4092089310942095449630974298809B029C049D209E229F15A102A280A404B004B484B720C0F0C2F0C4F0CAF0CCF0CEF0D05AD23CD6F0DE10E6046B
:40038000EA20EE0802030301040108031003130117011F0224022D03310334034005464049FF4A074BFF4C404D204EF04F055008520153015610580459045A045B045D048E
:4003C0005F01604061A86240632080038503883089038A0C8E0C8F01910894049504963898039D049E30A002A304A404A618A902AA01AE20B10CB23CB303B603B880B90A36
:40040000BA08BE40BF04C003C640C9FFCA07CBFFCC40CD20CEF0CF05D008D804D904DA04DC41DD01DF01E040E1A8E240E3200140028003080501071808800A080B100C02B4
:4004400010401125120117041A221B081E0821042340274028402B082C0231023284340236043740388039443A083B103E0141044E014F01505057206C02801081128201AB
:4004800083018B28904091219248931094A095409621974098829A489B1E9F40A280A402A540A604A920AA08AE20AF10B004B101B610C07BC217C42FCA15CCDBCE8ED00295
:4004C000D210E005EC10EE050110030C050C071109090A020B100C011303140215101802191C1B021E022D1432013602371F38803B083E044016410345E0460C47B0482625
:4005000049FF4AFF4BFF4EF04F44500C580459045A045C115D015F0166C06A406B02810F86018703880189038A068B0C8C068D028E019406950C980299049C079D08A00449
:40054000A10FA501A806A90CAA01AB03AD03B30FB607BA80BB08D804D904DC11DF0100240180051006040701080409200A100B020E090F101080120419801A011B801F4401
:4005800020202104231026042701282129102B802F023084312035203608370138043A403B123C103D083E024504460247444C084D015680570280208108820889218A106B
:4005C00090109503960297A09B449E80A008A420A508A610A701A840AB40B201B680B720C0C7C2E7C40ACA1FCCEECEEFD050D220E0A0EE801201160134013E10541856041C
:4006000058045B045D105F018202840486388A308B088C048D0A8E188F0492029503960297049A0C9C309D039E0C9F0CA001A402AA20AB05AC02AD03AF04B10FB202B401FA
:40064000B63CBA80BB02BE14C065C101C9FFCAFFCBFFCF01D018D401D804D904DA04DB04DC14DD10DF01E040E240E440E540E680E880EA80EC80EE800508068A0BA00C28A4
:400680000D010E5114081501174418041C201E0927402E9037443C103E4047804E065A025D815E085F206044630278087A10841085808E1090109208960199089A0A9B849E
:4006C000A202A508A610B304B410B704C0F0C2FCC4F0CA30CC50CE30D010D230D6F1D80DE410E604E810EC10EE080B010E0113011601300131013E014065410149FF4AFFD1
:400700004BFF4D834E034F015018580459045A045F016040624064406540668068806A806C806E80800784018B018C048D04930297019C079D03A301A802AE07AF08B1036B
:40074000B308B407B504BF10C025C101C5ECC720C823C9FFCAFFCBFFCD83CE03CF01D018D280D401D804D904DA04DB04DF05E040E240E440E540E680E880EA80EC80EE80FF
:4007800000040201034006010A020F101002131018041A081E402201231427C02A8132053340360238403B103F1040064340478049054A024E06520359055A4070027280DD
:4007C000780287809040960199089A0AA508A610A840A908B148B208B602B780C08DC221C403CA09CC8BCE2CD01CD238D60BDE01E602E8E0EC05800A8301840686188814EA
:400800008A088B018E30940897019C0E9D019E20A101A801AC08AE06B03EB101B401BE10BF01C013C105C6CBC70EC81CC9FFCAFFCBFFCEF0CF44D00CD401D804D904DA04B5
:40084000DB04DC04DD44DF01E6C0EA40EB020440050806480E2116061C401E0427802F8035C037083C103E013F204508460247084D80564457105C105E045F8182048311A5
:400880008610C0F0C2A0C4C0CA80CC50CEA0D050D210D6F04062410349FF4AFF4BFF4F0150185A045D025F016040624064406540668068806A806C806E8082078304840227
:4008C000870188078B018E0890079404950498019B049F02A208A408A701A808A903AD04B104B208B407B703BE05BF01C062C103C9FFCAFFCBFFCD83CE03CF01D018D804B6
:40090000D904DA04DC22DD02DF01E040E240E440E540E680E880EA80EC80EE8004180508060207420E880F20150217141C881E081F08244026402D082E60364037143C089E
:400940003D083E023F204010412042204520462048044A084E0888808C409018910292409B56A120A310A4C0A504A708B210C0F0C270C470CA70CC70CEE0D066D224E24075
:40098000E480E601EC20021F06040A200B010E0110161209162017011A081E101F0222022413260C280F2A10302033013502361F3E014032410645EC4620480B49FF4AFFEF
:4009C0004BFF4D834E034F01501852805401580459045A045B045C205D225F056040624064406540668068806A806C806E80D280DB04DF0104400501061007080C800D1191
:400A00000E400F20164017141E8124182608270837483F2045244D044E084F01552057105D045E805F01710177407E0886088708884090409120924096019A409B169D0120
:400A4000AD40B002C0F0C2F0C470CC50CE20D060D220D6D0DE20E620EE8018011C012401280134013E1058045F0101200201031008080AC10B040C400E09108013181528BE
:400A80001614171019201B011D102005210822112304286829802A503108325039543B014045410442404920520153105910695470907124721073188801890890409108CE
:400AC00092019404961297209C219E44A204A480A520A701AF04B440B604B701C007C2CFC46ECA0FCC0ECE0FD00FD204D604EC08070309080C040D1F0E0215181802191CFD
:400B00001A051B021D10211C230124062504280629072B182F043001351F36063B204031410249FF4AFF4BFF4F015018580459045A045C115D095F0160406240644065408C
:400B4000668068806A806C806E808201831E8D088E028F0191049301950296019803990E9E01A10EB110B30EB501B603B701BF40C035C102C5ECC602C807C9FFCAFFCBFF20
:400B8000CD83CE03CF01D018D280D401D804D904DA04DB04DC99DD99DF05E040E240E440E540E680E880EA80EC80EE8001800540074008200DA8111419801B011D401F40D3
